:020000041000EA
:1000000000B5324B212058609868022188439860DF
:10001000D860186158612E4B002199600221596106
:100020000121F02299502B49196001219960352056
:1000300000F044F80222904214D00621196600F024
:1000400034F8196E01211966002018661A6600F04E
:100050002CF8196E196E196E052000F02FF8012189
:100060000842F9D1002199601B49196000215960AB
:100070001A491B48016001219960EB211966A021F2
:10008000196600F012F800219960164914480160C1
:100090000121996001BC002800D000471248134993
:1000A000086003C880F30888084703B5996A0420EC
:1000B0000142FBD001200142F8D103BD02B5186610
:1000C0001866FFF7F2FF186E186E02BD00000240BE
:1000D000000000180000070000035F00212200005C
:1000E000F4000018222000A00001001008ED00E03C
:1000F00000000000000000000000000074B24E7A12
:1001000000000420E3010010C3010010E903001007
:10011000C1010010C1010010C1010010C101001097
:10012000C1010010C1010010C10100104503001001
:10013000C1010010C1010010C9030010D503001057
:10014000CD010010CD010010CD010010CD01001037
:10015000CD010010CD010010CD010010CD01001027
:10016000CD010010CD010010CD010010CD01001017
:10017000CD010010CD010010CD010010CD01001007
:10018000CD010010CD010010CD010010CD010010F7
:10019000CD010010CD010010CD010010CD010010E7
:1001A000CD010010CD010010CD010010CD010010D7
:1001B000CD010010CD010010CD010010CD010010C7
:1001C00000BE00BE00BE00BE00BE00BE00F03FF894
:1001D000103800BE00202049086006C881F3088856
:1001E00010471E48006800282DD10CA40ECC002911
:1001F00002D000F010F8F9E719491A4A002000E08F
:1002000001C19142FCD1184988471849884700BE6E
:10021000FDE701C901C29A42FBD370479CC201109D
:10022000C00000208C11002074D3011000000420B5
:100230000000042074D301100010042000100420DA
:100240000000000070470A4810F0A0FE0047EFF3DE
:100250000580C0B27047000008ED00E0000000D04B
:1002600098110020C4AC0020CD02001075BA001017
:1002700057560000F8B5C046F8BC08BC9E4670470B
:10028000F8B5C04610B5064C2378002B07D1054BB6
:10029000002B02D0044800E000BF0123237010BDF2
:1002A000101700200000000084020010044B10B55D
:1002B000002B03D00349044800E000BF10BDC04636
:1002C000000000001417002084020010164B002BC1
:1002D00000D1144B9D46402292029A1A9246002168
:1002E0008B460F461348144A121A12F0DBFE0F4BCE
:1002F000002B00D098470E4B002B00D098470020D1
:10030000002104000D000D48002802D00C480BF01D
:10031000B4FB12F049FA2000290007F091FE0BF01F
:10032000A9FBC046000008000000042000000000F7
:10033000A17F001098110020C4AC00207BBA0010EF
:10034000000000007046C0082CD3EFF309808169DB
:1003500002390978002929D101B50FC8B8470CBC6A
:1003600003C29E461E4B06CB91421ED0083B1A602C
:10037000002909D0EFF3098020388863F0C0444693
:100380004D4656465F46F0C0906B1030F0C8A04610
:10039000A946B246BB4680F309882038F0C802203F
:1003A000C0430047EFF30880D1E770470D4A136858
:1003B0009942FAD801B5890053589C460FC8E047C6
:1003C0000CBC10609E46704701B507F0E3F803BC13
:1003D0008E46C7E701B507F09BF803BC8E46C1E720
:1003E000BC05002034920110102304E0202302E019
:1003F000302300E040239C46F0B404AE7546E80884
:1004000001D3EFF309860E4F0FCE0FC70FBC0FC7F6
:100410004046494652465B460FC71DCE3100A60AEC
:1004200000D304316E0900D248311FC7EFF30980B1
:100430006946EFF3148663C7604601490AF09EFEE1
:1004400034AC002001480421014B1847B0070020BC
:100450009D0F011002B47146490849000956490030
:100460008E4402BC7047C04602B471464908490038
:10047000095C49008E4402BC7047C0460022430814
:100480008B4274D303098B425FD3030A8B4244D35C
:10049000030B8B4228D3030C8B420DD3FF2209029E
:1004A00012BA030C8B4202D31212090265D0030B5D
:1004B0008B4219D300E0090AC30B8B4201D3CB0353
:1004C000C01A5241830B8B4201D38B03C01A524195
:1004D000430B8B4201D34B03C01A5241030B8B4297
:1004E00001D30B03C01A5241C30A8B4201D3CB0282
:1004F000C01A5241830A8B4201D38B02C01A524167
:10050000430A8B4201D34B02C01A5241030A8B4269
:1005100001D30B02C01A5241CDD2C3098B4201D381
:10052000CB01C01A524183098B4201D38B01C01AFF
:10053000524143098B4201D34B01C01A5241030976
:100540008B4201D30B01C01A5241C3088B4201D325
:10055000CB00C01A524183088B4201D38B00C01AD2
:10056000524143088B4201D34B00C01A5241411AF9
:1005700000D20146524110467047FFE701B5002006
:1005800000F0F0F802BDC0460029F7D076E77047CA
:1005900003460B437FD4002243088B4274D30309E4
:1005A0008B425FD3030A8B4244D3030B8B4228D385
:1005B000030C8B420DD3FF22090212BA030C8B42AB
:1005C00002D31212090265D0030B8B4219D300E04B
:1005D000090AC30B8B4201D3CB03C01A5241830BD0
:1005E0008B4201D38B03C01A5241430B8B4201D380
:1005F0004B03C01A5241030B8B4201D30B03C01AA9
:100600005241C30A8B4201D3CB02C01A5241830A22
:100610008B4201D38B02C01A5241430A8B4201D351
:100620004B02C01A5241030A8B4201D30B02C01A7B
:100630005241CDD2C3098B4201D3CB01C01A5241E2
:1006400083098B4201D38B01C01A524143098B426B
:1006500001D34B01C01A524103098B4201D30B0154
:10066000C01A5241C3088B4201D3CB00C01A524179
:1006700083088B4201D38B00C01A524143088B423E
:1006800001D34B00C01A5241411A00D201465241D7
:10069000104670475DE0CA0F00D04942031000D3F6
:1006A0004042534000229C4603098B422DD3030A4B
:1006B0008B4212D3FC22890112BA030A8B420CD35B
:1006C000890192118B4208D3890192118B4204D384
:1006D00089013AD0921100E08909C3098B4201D304
:1006E000CB01C01A524183098B4201D38B01C01A3E
:1006F000524143098B4201D34B01C01A52410309B5
:100700008B4201D30B01C01A5241C3088B4201D363
:10071000CB00C01A524183088B4201D38B00C01A10
:100720005241D9D243088B4201D34B00C01A5241E7
:10073000411A00D20146634652415B10104601D374
:100740004042002B00D54942704763465B1000D3FE
:10075000404201B5002000F005F802BD0029F8D0A4
:1007600016E770477047C046D0400B1CD1409C46EE
:10077000203AD3401843524263469340184370478F
:100780009140031C90409C46203A934019435242AA
:100790006346D340194370478446101C62468C461A
:1007A000191C634600E0C0461FB501F031FA00286D
:1007B00001D40021C8421FBD10B501F089F94042A3
:1007C000013010BD10B501F023FA002801DB002034
:1007D00010BD012010BDC04610B501F019FA002867
:1007E00001DD002010BD012010BDC04610B501F094
:1007F000ABF9002801DC002010BD012010BDC0466F
:1008000010B501F0A1F9002801DA002010BD012087
:1008100010BDC0461C2101231B04984201D3000CCB
:1008200010391B0A984201D3000A08391B09984263
:1008300001D30009043902A2105C40187047C04679
:100840000403020201010101000000000000000099
:10085000414208401C2101231B04984201D3000C93
:1008600010391B0A984201D3000A08391B09984223
:1008700001D30009043902A2105C401A7047C04637
:100880001B1C1D1D1E1E1E1E1F1F1F1F1F1F1F1F87
:10089000002B15D1002A13D1002906DB01DC00282A
:1008A00006D00020C043410802E080210906002054
:1008B00007B4024801A14018029003BDA9FEFFFF42
:1008C00003B4684601B5029800F02CF9019B9E46DE
:1008D00002B00CBC7047C046002B11D1002A0FD1CA
:1008E000002900D1002802D00021C943081C07B408
:1008F000024802A14018029003BDC04669FEFFFFF6
:1009000003B4684601B5029800F04AF8019B9E4680
:1009100002B00CBC7047C046F0B5CE464746150441
:100920002D0C2E0080B50704140C3F0C9946030CC7
:100930007E435D43674363437F19340CE4199C464F
:10094000A54203D980235B029846C4444B464343E7
:100950005143250C36046544360C2404A4195B1954
:10096000591820000CBC90469946F0BD094A43082E
:100970001340C01A0300084A8008104013401B1897
:100980001809C018054B03401802C0180304C0180A
:10099000000E704755555555333333330F0F0F0F36
:1009A000F0B54F464646D646C0B5040082B00D00AD
:1009B000914698468B422FD82CD04146484602F0AB
:1009C000DDF829000600200002F0D8F8331A9C4612
:1009D000203B9A4600D576E04B46524693401F0096
:1009E0004B46624693401E00AF4228D825D053465E
:1009F000A41BBD41002B00DA7BE000220023009203
:100A00000193012352469340019301236246934090
:100A1000009318E08242D0D9002200230092019373
:100A20000A9B002B01D01C605D600098019902B008
:100A30001CBC90469946A246F0BDA342D7D90022DD
:100A40000023009201936346002BE9D0FB079846F0
:100A5000414672080A437B0866460EE0AB4201D16C
:100A6000A2420CD8A41A9D41012024196D410021F5
:100A7000013E24184D41002E06D0AB42EED9013E76
:100A800024196D41002EF8D10098019953460019A0
:100A90006941002B23DB2B005246D3402A006446D9
:100AA000E2401C0053461500002B2DDB2600574664
:100AB000BE40330026006746BE403200801A99418E
:100AC00000900191ACE7624620239B1A4A46DA4027
:100AD0006146130042468A4017001F4380E7624682
:100AE00020239B1A2A0066469A402300F3401343B2
:100AF000D4E76246202300219B1A00220091019234
:100B00000122DA40019280E72023624626009B1AE8
:100B1000DE402F00B0466646B74046463B003343B2
:100B2000C8E7C046F0B583B016001F0000900191E1
:100B300002F030F804000D0002000B003000390014
:100B4000FFF7EAFE009A019B121A8B4108992000D8
:100B50000A604B60290003B0F0BDC046F0B54E46B8
:100B600057464546DE46E0B543025B0A450083B082
:100B70000F1C99462D0EC60F002D57D0FF2D24D0E7
:100B80008020DB00C0041843002381469A469B4620
:100B90007F3D7C027A00FB0F640A120E984623D038
:100BA000FF2A4BD0E30080240020E4047F3A1C435A
:100BB000AD186B1C47460193534677403A000F2B04
:100BC00048D87D499B00CB589F46002B00D085E03C
:100BD00008339A46063B9B467C027A00FB0FFF25B2
:100BE000640A120E9846DBD1002C00D090E05246E9
:100BF00001231A4392460120DBE74C465846170072
:100C0000022824D0032800D1CFE0002200230128AD
:100C10004DD15802D205400AFF071043384303B0B4
:100C20003CBC90469946A246AB46F0BD002B5BD13A
:100C300004239A46033B00259B46AAE7FF35002C78
:100C400060D1524602231A4392460220B1E7FF22A6
:100C50000023DEE74B461B0C9C464B462604360C15
:100C6000180461463300220C6446000C43434E4393
:100C70005043544380191A0C1218964203D980210C
:100C800049028C4664441B041B0C1004C0188301E9
:100C90005E1EB341800E1843130C1B199B010343C6
:100CA0001C00230179D5012362081C401443019ADA
:100CB0007F32002A4DDD630704D00F232340042B2D
:100CC00000D00434230103D53C4B019A1C408032F0
:100CD000FE2ABCDCA3015B0AD2B29AE70C239A4637
:100CE000093BFF259B4654E71800FFF793FD4A4652
:100CF000431F76259A4000236D4291462D1A9A464D
:100D00009B4646E7524603231A439246032050E788
:100D10002000FFF77FFD431F2D1A9C40763D0020E9
:100D200047E780230027DB03FF2272E7424666E79E
:100D30004C463200584662E780234A46DB031A429B
:100D400022D01C4220D123435B025B0A4746FF228C
:100D50005FE701239A1A1B2A21DC23000199D34063
:100D60009E318C401A0023005C1EA34113435A0796
:100D700004D00F221A40042A00D004335A0111D49F
:100D80009B015B0A002244E780234A46DB031343AE
:100D90005B025B0A3700FF223BE7019587E70022F1
:100DA000002336E70122002333E78023DB032343BC
:100DB0005B025B0AFF222CE7B0870110FFFFFFF701
:100DC00041024200C30F490A120E00207E2A0DD9AB
:100DD0009D2A0CD8802000040143952A0ADC962025
:100DE000821AD1404842002B00D108007047034AC4
:100DF0009818FBE7963A9140F4E7C046FFFFFF7F63
:100E000070B500283DD0C317C5185D40C40F280039
:100E1000FFF700FD9E22121A962A07DCD2B208289C
:100E200033DD083885406802400A23E0992A0BDD4B
:100E3000052329001B1AD94003001B339D402B00BA
:100E40005D1EAB4119430D00052801DD431F9D4088
:100E50002B000F490B406E0709D00F263540042D9B
:100E600005D004335D0102D59F220B40121A9B016D
:100E7000580AD2B24002D205400AE4071043204388
:100E800070BD002400220020F4E76802400AF1E768
:100E9000FFFFFFFBF0B54F464646D6460C00090360
:100EA000C0B5490A470F5E0039431F03DB0F9C465C
:100EB00065007B0A570F1F436D0DE40F760DA146A9
:100EC000C000B846D200AB1B64457BD0002B5FDD71
:100ED000002E00D0A4E03E00164300D112E15E1EB9
:100EE000002E00D09EE1871A4346B842804101257A
:100EF000C91A4042091A0B0200D431E149024E0AD4
:100F0000002E00D16EE13000FFF784FC0300083BA7
:100F10001F2B00DD61E120223900D21A9E40D14012
:100F20009F400E439D4200DD51E15D1B6B1C1F2B5A
:100F300000DD7CE12021C91A3D0030008F4088404F
:100F4000DD40791E8F41310007222843D94000251A
:100F500007433A40002A09D00F233B40042B05D019
:100F60003B1DBB42BF417F42C9191F000B0200D489
:100F700026E26A1CC64B55056D0D9A4200D106E16A
:100F8000C44AFF080A40530752023B43120B8EE04B
:100F9000002B00D0B8E06B1C5B055B0D012B00DC67
:100FA00030E1871A4346B842B641CB1A76429E1BBF
:100FB000330200D54CE13B003343A1D10022002491
:100FC000002570E0002B00DCE5E0002E00D183E07E
:100FD000AF4EB54260D0802636043743B846382B32
:100FE00000DC3EE1434613431F007A1E97413F1841
:100FF00087428041404209180B0200D4B0E0A44B64
:1010000001359D4200D1C3E0A24A7B080A4001217C
:101010000F401F435108D30707221F433A4099E767
:101020009B4EB54238D0802636043743B846382B1D
:1010300000DDDCE01F2B00DC30E11E004746203ED7
:10104000F740BC46202B04D04026F31A46469E406B
:101050003243170063467A1E97411F43CCE0002BB2
:1010600000D104E24346134300D159E14B07C008C5
:1010700018438023C9081B03194208D04546ED08D0
:101080001D4204D14346D008590708432900420FA6
:10109000C9007F4D1143C0004B07CA087C49C008F6
:1010A00003438D4268D012036D05120B6D0D0021B4
:1010B00012031800130B0A0D12051A43764B2D0567
:1010C00013402B435B00E4075B08234319001CBC5F
:1010D00090469946A246F0BD3E00164312D05E1ED1
:1010E000002E00D000E187188742804141444042F1
:1010F000091801250B0233D5022585E76446330024
:10110000414610001D00C7E7002D00D0DAE00C00BA
:101110000443F3D05C1C00D19FE15D4CA64200D19A
:101120002FE1DB43382B00DD66E11F2B00DD83E17F
:1011300020240500E41A0F00DD40D940A0404346BA
:10114000A7405B1A441EA04198462F433843171A04
:10115000BA42924143465242991A64463500CAE661
:1011600007223A40002A00D0F6E64B07CA08484951
:10117000FF083B438D4296D11900114300D19EE1F7
:10118000802109030A431203120B414D8FE715001A
:10119000002200238BE7002B00D0C7E06B1C5F050B
:1011A0007F0D012F00DCF1E0394DAB4200D1B9E0F9
:1011B00085180A0085428941424449425118072254
:1011C000CF076D082F4349083A401D00C2E60722A9
:1011D0003049ED1A31403A40BCE63E00283886409E
:1011E00000279FE63800FFF715FB20308EE64346C8
:1011F00013431F007A1E9741C71BB84280414042EB
:10120000091A78E60E003B0006431343002D61D116
:10121000002E00D0F4E0002B00D11BE16446390021
:10122000100039E71A4FBB427AD03300FFE6300096
:101230001F3DE840202B03D04021CB1A9E4037436E
:101240007B1E9F41072207433A400021002589E782
:10125000171A4346BA42B641591A76428E1B644663
:101260004EE61F2B00DDADE020264746F61AB740BC
:10127000B9461700B246DF404E463E433700564659
:10128000B240561EB24117434246DA408918AEE6D4
:10129000FF070000FFFF7FFFFFFF0F80202647466C
:1012A000F61AB740B9461700B246DF404E463E43F5
:1012B00037005646B240561EB24117434246DA4006
:1012C000891A99E77F4CA6425BD0802424045B42B4
:1012D000214327E7002E0CD1002B00D1CBE0644640
:1012E00039001000774DD7E6764FBB4218D0330057
:1012F00075E6002B14D04B07C00818438023C9089B
:101300001B03194207D0FC081C4204D17907D008FE
:101310000843E14621004C46420FC9001143C0007A
:10132000684DB9E61D0000220023C0E6002D5BD108
:101330000D00054300D1E2E65D1C00D1B0E0614D37
:10134000AE421FD0DB43382B71DC1F2B00DD96E053
:1013500020250F00ED1AAF40B9460700AA46DF402E
:101360004D463D432F005546A840D940451EA84153
:1013700088440743BF189742924151424144350087
:101380003AE6644635004146100085E60B0003430B
:10139000002D00D063E6002BF5D04346134300D167
:1013A0007AE6871887428041072241444042091863
:1013B0003A400B0200D4D5E6434B01351940C9E54C
:1013C000380069E61E004746203EF740BC46202B09
:1013D00004D04026F31A46469E4032431700634627
:1013E0007A1E97411F4302E6364DAE42CAD0802591
:1013F0002D045B422943A6E70843411E8841A6E627
:10140000002B00D148E6871A4346B842B641CB1AB2
:1014100076429E1B33024BD5171A4346BA4292417D
:10142000591A5242891A072264463A4092E501430A
:101430000F00791E8F419DE71C000F00203CE74004
:10144000202B03D04024E31A99400843411E8841D1
:1014500038437CE60022002425E6171A4346BA42A8
:101460009241591A5242891A6446350043E5414671
:101470001000144D10E680220024120380E61D00A7
:101480000F00203DEF40BC46202B03D04025EB1A37
:101490009940084307006346781E87411F4369E768
:1014A000871897429B4141445B42C9183500A3E528
:1014B0003B003343CED0072231003A4052E60023AE
:1014C0001A00F4E5FF070000FFFF7FFFF0B5574665
:1014D000DE464E464546E0B5834607000E0348000B
:1014E00085B092461C00360B400DCD0F002800D170
:1014F0009DE0954B984239D08023F6001B041E4393
:10150000924A7B0F33439946944603006344009309
:1015100000230026FF00029323031B0B9846630061
:10152000E40F52465B0D019400D1B3E086498B4233
:1015300000D19EE04246D100802212040A43514667
:10154000490F11438B46814952468C4600996344AA
:10155000CB1A0021D20000932B0063409A460F2E35
:1015600000D905E17A4BB6009B599F465B46334351
:10157000994600D0B8E00223082600270090029385
:10158000CAE7CB463A0002990195019B9A46022987
:1015900027D0032900D180E2012944D06D49009B66
:1015A0008C4663441C00002C38DD530700D013E246
:1015B000D2085B46DB0109D55946674B19408B467B
:1015C0008021C9008C46009B63441C00634B9C42F5
:1015D00007DC5B4664055F075B0217431B0B620D6C
:1015E00002E000230027584A00211B031C0B0B0DAF
:1015F0001B05234314055A4A380013401C43534625
:101600006400DB0764081C43210005B03CBC904625
:101610009946A246AB46F0BD0122524201231B1B54
:10162000382B00DCADE1002200230027DCE75B461D
:10163000334399465ED0002E00D18AE13000FFF797
:10164000E9F803000B3B1C2B00DD7BE11D22D31AC4
:101650005A460100DA4008398E4013005F46334392
:1016600099468F403F4B00261B1A0093002302939C
:1016700052E7414653460B433B499B468C46009BF1
:10168000634400935B46002B3BD1022300221E43A0
:10169000022161E7434613439B4637D04346002B64
:1016A00000D162E14046FFF7B5F803000B3B1C2B6D
:1016B00000DD53E102004146083A914088461D2171
:1016C000CB1A5146D9400B0041460B439B4653462B
:1016D00093401A00009B25499C46604403008C46B9
:1016E00063440093002137E70323B14600900C26A2
:1016F000029311E70023009301330426002702938D
:101700000AE70323C3461E43032125E701331E4393
:101710000022012120E700239A46802300271B0393
:10172000094A61E7802349461B03194200D1E2E0E0
:101730005946194200D0DEE00B431B0317001B0B78
:10174000A246014A50E7C046FF07000001FCFFFF28
:10175000F0870110FF030000FFFFFFFEFE070000FF
:10176000FFFF0F800DFCFFFF01F8FFFFF3030000F8
:10177000D94500D9CBE000D1C6E03C00484600275F
:10178000009B013B00935B46160E1B021E43130297
:10179000984633041B0C9946310C0191FEF7F4FE78
:1017A0004A4642430B04210C050019438A4207D9DB
:1017B0008919013D8E4203D88A4201D9851E8919B3
:1017C000881A0199FEF7E0FE09048C464A46210476
:1017D00064464243090C030021438A4204D9891913
:1017E000013B8E4200D8F1E02D041D43AB46434639
:1017F000891A4246280C12041D0C5B46140C220068
:101800001B041B0C5A4303946B43444302956843E7
:101810001B19150CEB189C4203D980246402A446C2
:1018200060441C0C15041B042D0C20185D1981420A
:1018300077D373D00C1AA24A7D1BAF42BF419446A6
:10184000009B7F426344E01B1C00864200D1DBE02A
:101850000199FEF799FE4A4642430B04290C070002
:1018600019438A4207D98919013F8E4203D88A4217
:1018700001D9871E8919881A0199FEF785FE090486
:101880004A46894629044D464243090C0300294330
:101890008A4207D98919013B8E4203D88A4201D96D
:1018A000831E89193F04891A3A00039F1A4338009E
:1018B00013041B0C584381460298150C6F43434395
:1018C00045434846000C8446DB1963449F4203D9D4
:1018D000802040028446654448461F0C00041B04D7
:1018E000000C7D191818A94200D284E000D17FE0D5
:1018F00001231A4357E680234A461B0313431B0365
:101900001B0BAA466F4A6FE6BA4200D935E74B4631
:10191000DC0758087B081C43FF0734E70024AF426C
:1019200089D247444745A4415B466442A4196418E0
:10193000013BA6421ED2A0426DD800D1B6E0241AC7
:101940009B4678E703005A46283B9A400027914679
:1019500088E65846FEF75EFF203072E603005246E6
:10196000283B9A4093460022B4E65046FEF752FFC9
:1019700020309AE6A642E2D1B845DCD9341A9B461B
:1019800059E71F2B65DC504C0099A4465C46614426
:1019900008008C4011008240D940501E82410C4307
:1019A00014435A46DA401300620709D00F2222403E
:1019B000042A05D02200141D9442894149425B1833
:1019C0001A0262D50122002300270DE68A4200D8C0
:1019D0000AE7831E891907E70F231340042B00D160
:1019E000E6E5171D9742924153429B44FA08E0E511
:1019F000002800D1D7E57118531EB14227D3A94260
:101A000015D358D01A0073E7002B00DC04E601233D
:101A100000229B44CDE502234744474589415B4270
:101A20009C46494289190C19E344241A03E74346AA
:101A30005F0047459B41B8465B429E19023A8919AF
:101A4000A94200D054E7404500D051E7ABE51A0069
:101A5000F6E71F215F4649420C1BE740202B07D0C9
:101A60001A49009B8C46634418005B4683401A4326
:101A7000501E82413A4307270023174009D00F2107
:101A8000002311401400042995D122005F075B0256
:101A90001B0BD20817430022A6E5802359461B03DF
:101AA0000B431B0317001B0B064A9DE5BD42B2D832
:101AB0009B460024BFE68045B9D31A00C3E7C04661
:101AC000FF030000FF0700001E0400003E040000AA
:101AD000F0B54F464646D6468446C0B58046194EB8
:101AE00018030F034D00000B5C0082463F0B6D0D89
:101AF000C90F9146640DDB0F0120B5420AD0B442F4
:101B000003D0A54201D157450CD01CBC9046994644
:101B1000A246F0BD66463E43F7D1AC42F5D15446ED
:101B20001443F2D10120C845EFD1994207D0002DCE
:101B3000EBD163461F433800471EB841E5E700205C
:101B4000E3E7C046FF070000F0B54F464646D646DD
:101B50004D00C0B50E03C90F8A462C491F035C0017
:101B60008046360B6D0D91463F0B640DDB0F8D42A9
:101B70001ED08C4216D0002D1ED130438446002C3E
:101B800001D13A4323D06246002A1AD09A4529D07F
:101B9000514602200139084001381CBC9046994644
:101BA000A246F0BD39001143E5D002204042F4E7DF
:101BB0003043FAD1AC420FD0002C0FD13A43E7D0DA
:101BC0000CE00122013B934318000130E5E7634636
:101BD0000020002BE1D0DBE73A43E6D19A45D7D18C
:101BE000A542D5DCA54205DBBE42D1D808D00020F5
:101BF000BE42D2D250460123013898430130CCE78F
:101C0000C845C5D80020C845F4D3C6E7FF07000083
:101C1000F0B54F464646D6464D00C0B50E03C90F37
:101C20008A462E491F035C008046360B6D0D914697
:101C30003F0B640DDB0F8D4218D08C4211D0002D6C
:101C400018D130438446002C1ED13A431CD1634640
:101C50000020002B30D051460220013908400138C5
:101C60002AE039001143EAD0022025E03043FBD1BD
:101C7000AC4226D0002C26D13A4324D15146022032
:101C800001390840013817E06246002A0FD09A4512
:101C9000E1D1A54205DBBE42DDD819D00020BE420D
:101CA0000AD25046012301389843013004E0012252
:101CB000013B9343180001301CBC90469946A24654
:101CC000F0BD3A43D0D19A45C5D1A542C3DCE0E787
:101CD000C845C0D80020C845E3D3EDE7FF070000A2
:101CE000F0B55746DE464E464546E0B5834606000B
:101CF0000F03480087B092461D003F0B400DCC0FEC
:101D0000002800D16FE0DE4B984238D08023FF00DE
:101D10001B041F43730F3B430193DA4B0027994683
:101D200000239B46F60081442B0369001B0B52469F
:101D30009846490DED0F002900D185E0D04B99421E
:101D400000D173E04346DA0080231B04134352465C
:101D5000CC48520F84461343524600206144D200BF
:101D600089442100694000918C46012149448A46FA
:101D70000F2F00D990E0C449BF00CF59BF465B4642
:101D80003B43019300D06AE10223082700268146E5
:101D90009B46C9E732005846019B614600910228E4
:101DA00000D175E0032800D1FEE1012800D02CE12C
:101DB00000230027002600253F032A0D3F0BB348D0
:101DC00012053A4302401B051343009A5B00D107FA
:101DD0005B080B433000190007B03CBC90469946A5
:101DE000A246AB46F0BD5B463B43019300D12FE1D9
:101DF000002F00D1A5E13800FEF70CFD03000B3BDE
:101E00001C2B00DD96E11D22D31A5A460100DA4050
:101E10005E4608398F4013008E403B4301939C4B34
:101E200000271B1A994600239B467DE741465346EF
:101E30000B4393498C46E144002B00D01AE1022267
:101E40000220174300228CE7134300D10DE14346E3
:101E5000002B00D181E14046FEF7DCFC02000B3A8A
:101E60001C2A00DD72E10100434608398B40984688
:101E70001D239A1A5346D3401A0043461343524631
:101E80008A404946081A824989468144002068E709
:101E90007B4B002700268EE7140C1204120C110055
:101EA000370C3604350C794328008C462E006043ED
:101EB0006044834656432100300C8046584679439F
:101EC00040440291844506D98846802149028C46C7
:101ED000E044414602913604010C360C00048B4666
:101EE00081191E0C1B041B0C0391190079438C46AD
:101EF000280075436544A8465843050C454477437C
:101F0000A94203D9802149028C466744290C8C469A
:101F100039000004000C2D042D186144AB440591D8
:101F20005946049101990F043F0C080C39005143A4
:101F30004243904602008C46090C8B4662437C4328
:101F400044445C44A04503D9802149028846424468
:101F5000210C884661460904090C8C463900594316
:101F6000434370437E430F0CF6182404BE196444A7
:101F700042448C46B34203D980235B0298464044D6
:101F8000029B61469846049B370443449B46AB45FD
:101F9000AD416B420D0405992D0C8C467F196744A9
:101FA000FD18A8465D462D19A542A44193466442FA
:101FB000A446C344DC448F42BF4198459B419345AE
:101FC0009241A445A4415B427F421F43360C5242DA
:101FD0006442BF192243BF18624638184302D20D2B
:101FE000039913436A020A43501E82416146ED0D74
:101FF0002A434E023243D90100D4B3E001265008EF
:1020000032400243DE0732435B08224C5444002C2A
:1020100062DD510709D00F201040042805D0101DA3
:102020009042924152429B180200D90104D580246B
:102030001948E400034054441848844200DD27E76F
:102040005E075B02D2081F0B630516435B0DB2E609
:10205000002399460133042700269B4664E60323A8
:10206000019781460C279B465EE60122012017431B
:10207000002276E6032303201F43434671E6C04651
:10208000FF07000001FCFFFF30880110FFFF0F80F9
:102090000DFCFFFFFF030000FFFFFFFEFE07000037
:1020A0000023802700933F030026434B83E6019BD8
:1020B0003200A446584670E6AC466EE68027019989
:1020C0003F0339422DD03B422BD11F433F033F0BEF
:1020D00000951600384B6EE601252D1B382D00DDCE
:1020E00066E61F2D40DC35481C0050441600824037
:1020F0008440EE40501E824134431443EB4062075B
:1021000009D00F222240042A05D02200141D944237
:10211000804140421B181A023ED5012300270026A9
:1021200049E68027019B3F031F433F033F0B009479
:10213000214B40E603005A46283B9A400026019274
:102140006DE65846FEF766FB203057E60300524620
:10215000283B9A401300002293E65046FEF75AFBB4
:1021600020307BE6CA4650E71F201E004042041B79
:10217000E640202D03D0124C5444A3401A43501E75
:102180008241324307260027164009D00F20002342
:10219000104014000428B9D122005E075B021F0B17
:1021A000D2081643002306E680273F031F433F0360
:1021B0003F0B1600004BFEE5FF0700001E04000069
:1021C0003E040000F8B557464E464546DE460C0034
:1021D0000903E0B5490A460F5F0031431E03DB0FD8
:1021E000760A9B46530F3343C84E6500C000E40F88
:1021F000D2006D0DA24681467F0D9C469046B742A7
:1022000000D1B9E05B46012673409B46EE1BA34517
:1022100000D183E0002E63DD002F00D0B1E06346E3
:10222000134300D123E1731E002B00D0BAE1861ABC
:102230006346B04280410125C91A4042091A0B0287
:1022400000D447E149024B0A98464346002B00D18F
:1022500089E14046FEF7DEFA0300083B1F2B00DD54
:102260007CE120223000D21A4146D0409940020041
:102270009E400A439D4200DD6AE15D1B6B1C1F2BE3
:1022800000DD94E1202110003500C91A8E40DA40AB
:102290008840DD40711E8E41110007222843002531
:1022A00006433240002A09D00F233340042B05D0C7
:1022B000331DB342B641764289191E000B0200D489
:1022C0003DE26A1C914B55056D0D9A4200D119E112
:1022D0008F4AF6080A40570752023743120B9BE019
:1022E000002E00D0C5E06E1C7605760D012E00DCB8
:1022F00048E16746861ACB1BB042BF417F42B846D1
:102300001F004346FF1A3B00B8461B0200D55FE1A1
:1023100037439AD100220024002579E0002E00DC0A
:10232000FAE0002F00D18DE0784B9D4267D08023EA
:1023300067461B041F43BC46382E00DC52E163464F
:1023400013435A1E93411E18864280414042091889
:102350000B0200D4BEE06D4B01359D4200D1D2E0AE
:102360006B4A73080A4001210E401E435108D307EF
:1023700007221E43324095E71E00164300D045E772
:1023800040E7624B9D423AD0802367461B041F43BF
:10239000BC46382E00DDEBE01F2E00DC3AE13300B6
:1023A0006746203BDF403B00202E05D04027BF1B67
:1023B0006646BE40324390464646721E96413343BF
:1023C000DAE0002B00D114E26346134300D168E148
:1023D00080234E07C008C9081B030643194208D0D2
:1023E0006046C008184204D163460100D2085E0767
:1023F0001643F3009946C900720F444D11434B46F2
:10240000DE08424B4F073743CA089D4200D16EE0B9
:1024100012036D05120B6D0D00211203130B0A0D33
:1024200012051A433B4B2D0513402B435B00E40779
:102430005B082343380019003CBC90469946A246ED
:10244000AB46F8BD6346134311D0731E002B00D07A
:1024500007E18618864280416144404209180125FF
:102460000B0237D502257BE73E00614691463500D9
:10247000C5E75C46002D00D0E1E00B000343F3D03C
:10248000731C00D1ACE1214B9F4200D13AE1F343F0
:10249000382B00DD6FE11F2B00DD8CE120250E00C5
:1024A000ED1AAE40B0460600AA46DE40454635432A
:1024B0002E005546D940A8406346451EA8415B1AE8
:1024C0009C463043161AB242924163465242991AD0
:1024D0003D00B4E607223240002A00D0E4E60B4B70
:1024E000F6084F073743CA089D4200D090E73B00EB
:1024F000134300D1A6E180231B031A431203120BDE
:10250000024D89E715000022002785E7FF0700003C
:10251000FFFF7FFFFFFF0F80002E00D0C7E06B1C86
:102520005E05760D012E00DCF0E0C84DAB4200D117
:10253000B9E085180A008542894162444942511830
:102540000722CE076D082E43490832401D00A9E638
:10255000BF49ED1A114007223240A3E63200283865
:102560008240002686E63000FEF754F9203073E6FC
:10257000634613435A1E9341C61AB04280414042FB
:10258000091A5CE60E00674606431743002D5ED12C
:10259000002E00D0F3E0002F00D11EE15C46614622
:1025A00091462CE7A94FBE427BD01E00F1E61000F9
:1025B0001F3DE840202B03D04021CB1A9A40164300
:1025C000731E9E410722064332400021002583E707
:1025D000161A6346B2428041591A40420B1A984675
:1025E0005C4632E61F2E00DDABE02027BB1B9A467F
:1025F00063465746BB40994613004F46F3401F437E
:102600003B005746BA40571EBA4113436246F24058
:10261000891898E62027BB1B9A4663465746BB405D
:10262000994613004F46F3401F433B005746BA40BC
:10263000571EBA4113436246F240891A9CE7834B06
:102640009F425FD080252D047342294320E7002E4E
:102650000CD1002F00D1D0E05C46614691467B4D05
:10266000CDE67A4FBE421CD01E0065E6002F18D082
:10267000C0084E0706438020C9080003014208D065
:102680006346DC08044204D12100DA46D2085E0722
:102690001643F300994601245346C900720F1143B3
:1026A0001C406A4DABE61D0000220027B4E6002D59
:1026B00059D10B00034300D1D6E6731C00D1B2E020
:1026C000624B9F421ED0F343382B6FDC1F2B00DD83
:1026D00097E020250E00ED1AAE40B0460600AA464F
:1026E000DE40454635432E005546A840D940451E9C
:1026F000A8418C440643B618964292415142614427
:102700003D0025E63D006146914678E60B00034317
:10271000002D00D055E6002BF5D06346134300D1C1
:102720006DE68618864280416144404209180022C5
:102730000B0200D4D0E6464B01351940B2E5B14654
:102740005DE633006746203BDF403B00202E05D08E
:102750004027BF1B6646BE40324390464646721E27
:1027600096413343EFE5394B9F42CBD080252D0472
:1027700073422943A8E70843411E8841A2E6002F7F
:1027800000D13CE66346861ACF1AB0429B415B42B9
:10279000FB1A98461B024ED5161A6346B242924166
:1027A000591A5242891A5C4600227BE501430E0009
:1027B000711E8E419FE71D000E00203DEE40B04689
:1027C000202B04D04025EB1A994008438146484607
:1027D0004346411E8841184374E60022002417E650
:1027E000161A6346B2429241591A5242891A3D0062
:1027F00025E561469146154D01E68022002412032D
:1028000079E61D000E00203DEE40B046202B04D09E
:102810004025EB1A9940084381464E464346711EB7
:102820008E411E4367E7861896429B4161445B4296
:10283000C9183D008CE547463743CED007224146B4
:10284000324049E600273A00E6E5C046FF070000AF
:10285000FFFF7FFF70B50C4E0D031C0349005B00AA
:102860002D0B490D240B5B0DB14208D00649002009
:102870008B4203D114432000441EA04170BD054388
:102880000120002DFAD1F1E7FF07000030B5144D0B
:102890000A034B00120B5B0DC90F0024AB4211DD84
:1028A000104CA34210DC8024640322430E4CE41A33
:1028B0001F2C0CDD0D48C31ADA4013005C420029BE
:1028C00000D11C00200030BD094BCC18FAE7094D9F
:1028D000E040AC4663449A4013000343EEE7C04631
:1028E000FE0300001D040000330400001304000078
:1028F000FFFFFF7FEDFBFFFF70B500282DD0C31752
:10290000C5185D40C40F2800FDF784FF154B1B1A46
:102910005B055B0D0A2815DD0B38854000222D0371
:102920002D0B002110002D030A0D2D0B12052A433B
:102930000D4D1B052A4013435B00E4075B0823434E
:10294000190070BD02002900153291400A000B21C8
:10295000081AC5402D032D0BE3E7002400230025B2
:102960000022DEE71E040000FFFF0F8010B5041EEA
:1029700025D0FDF74FFF144B1B1A5B055B0D0A2892
:1029800012DD0B38844000222403240B00211000A8
:1029900024030A0D240B120522430C4C1B05224074
:1029A00013435B00590810BD02002100153291400D
:1029B0000A000B21081AC4402403240BE6E7002375
:1029C00000240022E2E7C0461E040000FFFF0F8043
:1029D0004100090E4B1C70B5DBB24602750AC40FEC
:1029E000012B14DDE0239B006D07360BCB18002173
:1029F0000A0D280012051C4D32435B052A405B0876
:102A000013435B00E4075B082343190070BD0029F2
:102A100014D1002D1ED02800FDF7FCFE0A281CDC76
:102A20000B232A001B1ADA40030015339D400F4B7D
:102A300012031B1A5B05160B5B0DD8E7002D06D0A1
:102A4000320B802636036D071643094BCFE7084B40
:102A50000026CCE700230026C9E703002A000B3B31
:102A60009A400025E3E7C046FFFF0F80890300007E
:102A7000FF070000F0B54C00640D0B03621C5B0AFD
:102A8000460F5205C90F1E43C500520D012A29DD0C
:102A9000374BE718FE2F1CDC002F3BDD8001431E67
:102AA00098410722F3006D0F03432B431A40002A7D
:102AB00004D00F221A40042A00D004338022D2040A
:102AC0001A4024D00137FAB2FF2F02D09B01580AD6
:102AD00001E0FF2200204002D205400AC90710434E
:102AE0000843F0BD3543002C04D1002D0AD100224B
:102AF0000020F0E7002DECD08020C0033043FF22FF
:102B0000E9E7002400235B02580AE2B2E3E7DB08AE
:102B10003C00F8E73B001733F3DB80231B0433430F
:102B20001E26F61B1F2E14DD02225242D71B1A004E
:102B3000FA401700202E04D00E4A94466444A34065
:102B40001D432B005D1EAB4107223B431A4000276B
:102B5000ADE7094A2800A218954093406C1EA54194
:102B6000F04007222B4303431A4000279FE7C0464B
:102B700080FCFFFFA2FCFFFF82FCFFFF10B50029D5
:102B800003D1FDF747FE203002E0081CFDF742FEAE
:102B900010BDC046F0B54E465746DE464546E0B548
:102BA0000F00002183B006008946002F06DA3900A5
:102BB000002746428F41012149428946002B07DA0E
:102BC0004946C943100089461900002342428B41FF
:102BD00034003D0092469846BB4269D866D04146D3
:102BE0005046FFF7CBFF834639003000FFF7C6FFA2
:102BF0005B461B1A9C46203B9B4600D575E0514620
:102C0000584681400B005146604681400A00BB4255
:102C100061D85ED034003D005946A41A9D41002978
:102C200000DA7AE000210020012600900191594647
:102C30008E400196614601268E406146009600292D
:102C400050D0D90756085F080E4363460EE0AF42E6
:102C500001D1A6420CD8A41BBD41012124196D410C
:102C60000022013B64185541002B06D0AF42EED93B
:102C7000013B24196D41002BF8D1009801995B4666
:102C800000196941002B3DDB2E00DE4063462C001D
:102C9000DC405B46002B4BDB34005D46AC40230040
:102CA0006446A6403200801A994103E0B24296D9A8
:102CB000002000214B46002B04D003000C00002113
:102CC0005842A14103B03CBC90469946A246AB464F
:102CD000F0BDB1429ED900210020009001916146D3
:102CE0000029AED100980199E4E7202362465146BD
:102CF0009B1AD940404600916146884003000099E4
:102D00000B4380E7624620239B1A2A009A40260044
:102D100013006246D6401E43B8E7614620260127CD
:102D2000761A00200021F74000900191019781E779
:102D30006746202362463500BC409B1ADD402300D5
:102D40002B43ADE7024670B50A4392072AD11E4DC8
:102D5000EE0104C808C9541B9443344017D0D0B2C4
:102D6000D9B2401A2106014310D190B299B2401A4B
:102D7000210401430AD110021902000A090A401A6B
:102D80002102014302D1100E190E401A70BD9A4261
:102D9000DFD010BA19BA884201D9012070BD0020D5
:102DA000C04370BD02780B7801300131002A09D090
:102DB0009A4207D102780B7801300131002A01D004
:0C2DC0009A42EFD0D01A70BD0101010151
:022DCC0070474E
:022DCE0070474C
:022DD00070474A
:0C2DD4008423838100487047C0880110F0
:102DE000F0B5050000208FB081425CD102AB9E1D82
:102DF0002722300010F056F92B6828005B6B9847AB
:102E00002B6807005B6B280098472B0029331B7841
:102E100003AC00932B002A331B7822220193234B0F
:102E200022762380E13BFF3BA3700223FF33A38084
:102E3000413BE371B73B6372053BA372023B637393
:102E40006A461B4B67766382122307270012A0761F
:102E500005201278FF336277164AA382113BFF3BAD
:102E6000E28302AAF377D619F77704AE2077F077DA
:102E7000043080186A4612790321C2770A2002AA18
:102E80008018C1774020A173083189183235C8777E
:102E9000FF350DA90B70292221002800E375E77684
:102EA00010F06EF828000FB0F0BDC0460902000017
:082EB0000921000003400000AD
:102EB800F0B50400164B8BB0083301AD0360242233
:102EC8001449280010F058F8210000220126FF318B
:102ED8002020844603233700944460469B1A9F4071
:102EE800285CFFB2CB7C00280FD03B430132CB7467
:102EF800042AEDD120005D30FF3009F00BFA2000E4
:102F080000F0CEFD20000BB0F0BDBB43EEE7C0469D
:082F180070880110B086011061
:102F200010B50400FFF7C8FFC2212000490008F0D7
:062F3000F5FF200010BDBA
:102F3800F0B58BB001AD242204000D49280010F033
:102F48001BF801260022032031001700831A99403C
:102F58002037EF5DCBB22178002F06D00B432370CA
:102F68000132042AF0D10BB0F0BD99432170F7E784
:042F7800D4860110EA
:102F7C00F0B506005D36FF3695B0050030000F0049
:102F8C000193009209F090F93C22002105A810F061
:102F9C0083F80123072203AC23718033FF33EB5CEE
:102FAC002100134063716B461B782800E3716B465C
:102FBC001B79A77123720523039300F0C1FE040053
:0C2FCC00300009F08DF9200015B0F0BDB8
:102FD800F8B50F001049060015000EF0B5FD041EE7
:102FE8000AD10E4D0E49280002F040FE310028009B
:102FF80002F058FE2000F8BD03002A000121380025
:103008000FF0BEFB06002000AD1B0EF079FB6842F6
:103018006841C0B2EFE7C0466D8901101C1B002053
:04302800708901109A
:10302C00F8B50E000949170000250EF08BFD0400C1
:10303C00A84209D003003A00012130000EF080FEB6
:10304C00050020000EF05AFB2800F8BD6A8901101B
:10305C0070B50500194C0E002000194902F004FE51
:10306C002900200002F000FE1649200002F018FE94
:10307C00280015490EF066FD051E04D113492000E9
:10308C0002F00EFE70BD300010F0FAFC2B000200B6
:10309C00012130000FF072FB06000D49200002F0F8
:1030AC00E3FD0A223100200002F05BFE09492000FA
:1030BC0002F0F6FD28000EF021FBE3E71C1B0020BC
:1030CC00918A01109C8A01106D890110A28A01104D
:0830DC00B18A0110B88A01104D
:1030E400F8B50700134D0E0028001349140002F030
:1030F400BFFD3900280002F0BBFD1049280002F092
:10310400D3FD002C07D00E4938000EF01FFD051E1C
:1031140003D1040030702000F8BD621E03000121B9
:1031240030000EF011FE00230400335428000EF08A
:10313400E9FAF0E71C1B00206F8A01109C8A011039
:043144006A89011083
:10314800F8B507000E0015000024BC420FDA012173
:10315800192002F07BFF300002F0DAFE002119206E
:1031680002F074FF280002F0D3FE0134EDE7F8BD49
:10317800044B1B78002B04D00123034A11784B40E1
:0C31880013707047E02B0020A003002013
:1031940030B585B00CF01EFC1E4B1F4C186080230C
:1031A4009B0002930193C13BFF3B009300221B4908
:1031B40020000CF05BF81A4D1A492A00200008F090
:1031C40055FC0CF0EDFE0123029350330193164B92
:1031D400164C0093002301001A00200000F08EFD1D
:1031E4002000134B33220021FE3023600FF058FFE0
:1031F400104809F055F81048FFF79CFEC023002240
:103204005B00E2540D492A00200008F02FFC05B0B1
:1032140030BDC046F4250020FC1C00204489011068
:103224005803002011F200103512000098270020E6
:1032340078880110F4280020AA280020B92E001054
:1032440070B509480BF06AFD041E0BDA074D0849F6
:10325400280002F029FD604210F00AFC0100280059
:1032640002F022FD70BDC046FC1C00201C1B002087
:04327400768A011045
:10327800F8B5124C1249200002F0F8FC114E124D1C
:10328800316828000BF0CEFC1049071E00D1104908
:10329800200002F007FD002F0ED00E49200002F09A
:1032A80001FD316828000CF071F80849002800D1A8
:1032B8000749200002F0F6FCF8BDC0461C1B0020A0
:1032C800438A0110F4250020FC1C0020378A0110D5
:0832D8003F8A0110608A011019
:1032E000F0B585B0FFF7C8FF164F102269463800C9
:1032F000FFF7F8FE144C051E0FD11449200002F010
:10330000D5FC134E38003100FFF7A8FE1022310023
:10331000684610F0EDFB6B46DD730E49200002F0AD
:10332000A9FC6946200002F0C1FC0B496846FFF782
:1033300009FD43425841094B1870FFF783FF05B060
:10334000F0BDC046E38901101C1B0020F08901106C
:10335000108A0110188A0110238A0110E02B002026
:10336000012310B5164C86B0227853402370FFF726
:1033700083FF23781349002B00D113491348FFF72B
:103380006DFEFFF75FFF124903A802F043FD2378AB
:103390001049002B00D11049684602F03BFD6946F8
:1033A00003A802F069FD01000C4802F075FC6846B4
:1033B00002F0E1FC03A802F0DEFC06B010BDC0463E
:1033C000E02B0020238A0110108A0110E3890110EC
:1033D00055890110478901104D8901101C1B0020DF
:1033E00010B5FFF7BDFF044B1B78002B02D0012264
:1033F000024B1A7010BDC046E02B0020A003002035
:1034000030B585B06C46FFF737FF104D1022210014
:103410002800FFF70BFE102811D16368009A934231
:1034200009DDE368A268934205DD094B07CC07C3B9
:103430001A0023681360FFF705FF05B030BD1022A6
:1034400003492800FFF7C8FDF5E7C046298A0110A7
:0434500090030020C5
:1034540010B5FFF70FFF102203490448FFF7BAFD28
:10346400FFF7EEFE10BDC04690030020298A01102C
:10347400F0B5354C85B03549200002F015FC962294
:1034840003201100FFF75EFE002602F033FD304FEB
:1034940003900296019702F02DFD039BC01A2D4B59
:1034A400984218D81B2002F057FD05001A2002F09C
:1034B40053FD019BAB4200DD0195029BAB4200DA58
:1034C4000295874200DD0700864200DA06000520E7
:1034D40002F020FDDFE7204D019BEE602B60029B94
:1034E400AF606B60FFF7B4FF1C49200002F0C0FB23
:1034F4000A222968200002F024FC194E2000310021
:1035040002F0B6FB0A226968200002F01AFC154991
:10351400200002F0ADFB0A22A968200002F011FC91
:103524003100200002F0A4FB0A22E968200002F026
:1035340008FC0D49200002F0B7FB3C2205201100D5
:10354400FFF700FE05B0F0BD1C1B00208B890110A5
:10355400FF0F00003F1F000090030020C0890110EE
:0C356400D8890110DB890110E1890110F9
:10357000F0B5102099B002F093FDB84C23780028E4
:1035800000D0BBE0002B05D10133237002F0B4FC66
:10359000B34B1860B34B1B2000215A5E02920421EA
:1035A0005A5E039208215A5E0C255D5F049202F078
:1035B000D5FC04001A2002F0D1FC039BA34200DDDD
:1035C0002300029C9C4200DA1C002B00854200DD97
:1035D0000300049A05929A4200DA0593A24BA34F86
:1035E0001B78002B00D1D4E028262823039A5B42C5
:1035F00002992000009602F028FA282304005B427A
:103600002A0000960499059802F01FFA23000E3351
:103610009BB205001C2B00D800242B000E339BB25C
:1036200024B21C2B00D80025062002F039FD4642AA
:103630004641072002F034FD4342584176B2400033
:103640000643092002F02CFD434258418000064306
:10365000082002F025FD43425841C023C0005B0012
:103660000643FE54824B1B780293002B64D00D203E
:1036700002F016FD0024002801D10A2464420F2024
:1036800002F00EFD002800D10A340E2002F008FDE1
:103690000025002801D10A256D420C2002F000FD12
:1036A000002800D10A352300724E2B4341D03068E8
:1036B000FFF78EF9704A714BFDF7ECFBFFF7DAF973
:1036C000306036682800FDF79BFB311CFDF746FA99
:1036D000FDF776FB45B22000FDF792FB311CFDF7AC
:1036E0003DFAFDF76DFB00232A0041B23800FFF7D9
:1036F00045FC0F2002F010FC19B0F0BD002B0AD0E1
:1037000002F0FAFB564D2B68C01AFA235B00984270
:1037100004D9FFF765FE002323703BE702F0ECFBC2
:103720002B68C01A96235B009842F4D9FFF724FD5A
:10373000F1E700233360C4E7FA21E3172DB2E6185E
:103740005E40EB17E818584045434543090268437B
:10375000FCF71EFF45B22000FA21704370430902B6
:103760007043FCF715FF029B41B22A003800FFF7B7
:1037700005FC0C2002F094FC011E03D101235B42E6
:103780000A00B3E70E2002F08BFC011EB1D1012329
:10379000F6E7082002F084FC394E002808D102F038
:1037A000ABFB3368C01A374B984204D9FFF762FE6F
:1037B00002F0A2FB3060344E344B0096039A02991B
:1037C000200002F042F92A00040000962F4B0499D1
:1037D000059802F03AF93B00FF33587400B2DC73ED
:1037E000001224B22412987429481C740725FFF78C
:1037F000A3FB00240126274BA200D058C0B202F040
:103800004FFC220031002A409140E310FB18FE33A8
:10381000CAB2197800281DD10A431A7001340D2C40
:10382000E9D11D4C200008F045FD022307A90B71CA
:10383000013B1800FD30385CCA1801331071162B9B
:10384000F7D138000B6000F081FA200008F04EFD3F
:103850001E204FE791431970E0E7C046E22B00209D
:103860002429002090030020E02B0020982700202E
:10387000A0030020A02900209A9999999999B93F0D
:1038800020290020B80B0000FF7F00000180FFFF0F
:0C389000AA2800205C030020F42800207F
:10389C00E12110B549021B4800F024FE00241A4B0C
:1038AC00A200D0580221C0B2013402F08FFB0D2CC3
:1038BC00F5D10221102002F089FB0121192002F020
:1038CC0085FB0121122002F081FB0121132002F063
:1038DC007DFB0121142002F079FB0021122002F063
:1038EC00B3FB0021132002F0AFFB0021142002F0E7
:1038FC00ABFBFA20C00002F009FBFFF7EBFCFFF773
:0C390C0079FD10BD1C1B00205C03002096
:023918007047F6
:0E391A0010B5040003681B6B9847A08910BD10
:0E392800CB880079181A43425841C0B270474C
:0439360004207047B2
:08393C0000487047CA8B01101E
:0839440000487047B48B01102C
:10394C0030B5050089B00922002102A80FF0A4FBB4
:10395C002B00FD331878013B1978154B1B22019372
:10396C00022301AC63719F33A371A03BE3717433E9
:10397C0023726D3B63720D33A372F03BA3817133E1
:10398C00FF33A37323750B4BE073E3820A4B0B4895
:10399C00AA8123830E35D23B05906175FF3B210034
:1039AC002800A3760FF0E6FA280009B030BDC04617
:1039BC0006ABFF0A09020000910200000901810216
:1039CC00F0B5050000208FB081425ED102AB2722FA
:1039DC00981D0FF061FB2B6828005B6B2F799847C3
:1039EC002B6806005B6B280098472B0029331B784B
:1039FC0003AC9C462B002A331B78E7720193244BB3
:103A0C0022272380E13BFF3BA3700223FF33A380DB
:103A1C00413BE371B73B6372053BA372023B63739B
:103A2C001C4B27766746638212232522667607266F
:103A3C000012A07605206777174FFF33A382E78328
:103A4C00113B02AFFF3BBF1802AA3B709719E676F9
:103A5C00FE7704AE2077F077043080186A4612792E
:103A6C000321C2770A2002AA8018C1774020A173D3
:103A7C0008318918C87749350DA90B702922210006
:103A8C002800E3750FF076FA28000FB0F0BDC046A1
:0C3A9C00090200000921000003400000A6
:103AA80010B504000A4B0833036000F091FF06F0DC
:103AB80009FD2000403005F09AFB2000343005F065
:103AC80096FB20002C3005F092FB200010BDC0466C
:043AD800648B0110EA
:103ADC0010B50400FFF7E2FF80212000490008F038
:063AEC0017FA200010BDD6
:103AF40010B50400024B036005F02CFA200010BD41
:043B0400C88A01105A
:103B080010B50400FFF7F2FF2000302108F002FA98
:043B1800200010BDBC
:0A3B1C0010B50C220FF02EFA10BDB8
:083B260010B500F08AFF10BD8C
:103B2E0070B50400042918D005003C352B78002B05
:103B3E0006D103002933197800F082FF01232B7080
:103B4E00250048352B78002B07D123002A3319780E
:103B5E00200000F075FF01232B702000343005F09B
:103B6E00FBFA2000403005F0F7FA20002C3005F06B
:043B7E00F3FA70BD29
:103B840070B50D00040040220321280005F08AFAD4
:103B940023002933187040220321280005F089FAF4
:103BA4002A342070280005F019FA002804D189224B
:103BB4000249034807F016FC70BDC046468B01104D
:043BC400518B011010
:103BC80070B5040000F038FF23002933197820006D
:103BD800250000F060FF012320003C352B703430B5
:103BE80005F0BDFA2B78002B03D0236820005B6C0E
:043BF800984770BDBD
:103BFC0070B5040000F01EFF23002A331978200052
:103C0C0000F033FF23002500B83318600123200097
:103C1C0048352B70403005F0A0FA2B78002B03D0E0
:0A3C2C00236820001B6C984770BD50
:103C3600F7B51F00042300921370CA8803790400A5
:103C46000D0000269A4217D14B78B34216D00026B3
:103C56006A78012A10D1EB78092B0DD12300A988A7
:103C6600BC33197021003F262B89B83101330B6014
:103C7600009BBD343C601A703000FEBDCB78062B2D
:103C8600E6D18B881B120193212B1AD0222BDFD170
:103C960003681B6B98470028D9D0236820005B6B0C
:103CA60098470028D3D0236820005B6B9847236889
:103CB60006001B6B200098470123009A386013709A
:103CC600C6E700F086FE3200019905F0D0FF002815
:0E3CD600BDD00123009A386009261370B8E7AC
:0C3CE40010B500F077FE05F095FF10BD54
:0E3CF000C36810B5002B01D09B68984710BD2B
:103D0000F8B51E0000230125040083600E4B4571A9
:103D1000083303602C30170005F018FA2000343007
:103D200005F014FA2000403005F010FA23003C336F
:103D30001D701D73C0331F705E7000F04DFE2100BA
:0C3D400000F004FE2000F8BD648B0110B0
:103D4C0070B504008CB00D0000F066FE684605F0FE
:103D5C00EBF8200000260D4B69460A9534300BAD6C
:103D6C00009309942E7005F00FFA200000F05BFE12
:103D7C00074B31001A68684605F09AF82C786846AB
:103D8C00FFF7B2FE20000CB070BDC046C88A01100F
:043D9C00E48A0110A4
:103DA000F8B504000F0000F03DFEFFF79BFF051E75
:103DB00004D1200000F03DFE2800F8BD26003C366E
:103DC0003578002DF5D020004422390074300FF0F2
:103DD000D7F823002200293319787832636F200046
:0A3DE00000F051FE00233370E3E70A
:103DEA0010B50400FFF779FF002803D12C342070A6
:103DFA00013010BDA16A606AFFF7CDFF0028F8D034
:083E0A0001232C342370F4E7BE
:0C3E120010B50400FFF76BFF200010BD8E
:103E1E0010B542680368086854100019D20701D51E
:083E2E000268D358984710BD4B
:0C3E360010B501000430FFF7EFFF10BDD5
:103E440010B5024BC3601CC91CC010BDD88A011038
:103E540010B586B00400684603910092436004AB39
:103E640006C806C3200003A9FFF7EAFF200006B036
:023E740010BD7F
:0C3E760013B50400FFF7EBFF200016BDA1
:103E8400F0B504008DB000F0A5FD23000600293331
:103E940008AD1F7821002800184A0023FFF7E9FF26
:103EA4003900032340220095300006F07BFB2800F4
:103EB400FFF7ADFF260000F08DFD2A36039037781A
:103EC400210028000E4A0023FFF7D3FF3900032303
:103ED40040220095039806F065FB2800FFF797FF42
:103EE40022003178BC324023200000F0B6FD0023CC
:103EF4000120483423700DB0F0BDC046C93B00100A
:043F0400FD3B001071
:083F080010B5FFF794FF10BD96
:083F100010B5FFF7F9FF10BD29
:063F180016204042704734
:0A3F1E000020814200D119387047DD
:043F280001207047BD
:063F2C0016204042704720
:063F32001620404270471A
:043F3800112070479D
:023F3C007047CC
:023F3E007047CA
:023F40007047C8
:103F440070B5104C10492068104A114B88420FD1AB
:103F5400606890420CD1A068984209D100250D48B0
:103F640025600DF011F80300802029008004984793
:103F7400216009480021A36062600CF073FE0023F5
:103F8400236070BD8C110020DE8116F0299B72BD68
:0C3F94007ABE59D355420000A0860100FF
:103FA0000B00F0B50F2700260E33023902003A400D
:103FB000D5B22C0000093034092A00DD07341C700A
:0A3FC0005E70023B9942F1D1F0BDA2
:043FCA001E207047FE
:023FCE0070473A
:103FD00013B5040068460CF0C3FA21000098FFF7FF
:103FE000DFFF210001981031FFF7DAFF202016BD16
:103FF00010B5192001F06AFF040004480CF0C6FF58
:10400000030001200021A0409847C046554200000F
:0440100000207047D5
:104014009A2370B55B00C35C05001400002B1CD10F
:104024000368DB699847F0210C4B09012140C9184A
:104034004B1E9941F0232340303B5A4253410F22F7
:104044000731144001330D3A012C02D0023C624284
:104054006241A869006804F0C0FB70BD00FDFFFF69
:104064009A2310B55B00C35C0400002B05D1A3693F
:0C407400186804F0E2FB0028F9D010BD31
:104080009A2370B55B00C55C0400002D14D18369D0
:10409000002B0CD01868002809D00368DB6898470B
:1040A000A36904211D60A06907F038FFA561002302
:0A40B000FC34E3622363636370BD18
:1040BA009A23F7B55B00C35C0400002B2AD1802544
:1040CA00FF276D00A369186804F098FB002821D027
:1040DA0007F04BFAA369012218686B46DE1D0368D4
:1040EA0031005B6998472300FC335A6BAA420ED011
:1040FA005A6BAA420BD02200D96A3078283250541F
:10410A00DA6A01323A40DA625A6B01325A6307F0CC
:06411A0042FAD7E7F7BDF1
:104120009A2210B552000300805C002806D00120BE
:1041300001F0F2FE054801F086FA10BD9B69002BE4
:10414000FBD01868431E9841C0B2F6E72C17002038
:1041500070B504000D0001F076FA030000208342E0
:1041600004D0236829001B6C2000984770BD08B458
:10417000024B9C46024BC01A08BC604751410010DC
:0441800040010000FA
:1041840037B56B46DC1D9A2321705B00C35C0500C8
:10419400002B04D0C9B20A48FFF7D8FF3EBDAB6973
:1041A400186804F04AFB0028F9D0AB6901221868AA
:1041B400210003681B6998470130431E9841EDE7CD
:0441C4002C17002094
:1041C800F7B5060001911700002401F038FAA04263
:1041D8000DD0A7420BD93D1B402D00D94025019B8E
:1041E8002A001919300000F06BFF6419F1E720006C
:1041F800FEBD08B4024B9C46024BC01A08BC60477F
:08420800C94100104001000053
:104210009A2370B55B00C35C05000E001400002BF0
:1042200005D00F48FFF7D0FF0400200070BDAB6938
:10423000186804F004FB0028F9D0AB6901211B6861
:1042400018005B6F74301B6B9847AB6922001868CD
:10425000310003681B699847431CE6D10024E4E75A
:044260002C170020F7
:10426400F0B5C3B0050001F0D7F9932380229B0079
:10427400E918CB6852000400D31A984201DDCC68D7
:10428400141B01AB220002A92800A82601F017F88C
:104294000021019802AB241A76001C199323802272
:1042A4009B00EB18DF685200974211D081420FD077
:1042B400DF6897420AD05A68675CAA1897555A680B
:1042C4000132D2B25A60DA680132DA600131E5E7CC
:0442D40043B0F0BD46
:1042D80070B5040000F0A2FB2000FFF7BFFF932396
:1042E8009B00E318DD68200000F09FFB280070BDEC
:1042F80008B4034B9C46034BC01A08BC6047C04631
:08430800D94200104001000041
:104310009A2310B55B00C35C0400002B05D006484F
:10432000FFF7DAFF0400200010BDFC3407F022F98B
:0C433000646B07F035F9F6E72C1700204D
:10433C0070B5040000F070FB2000FFF78DFF932395
:10434C009B00E318DA68002A09D0A8229B68520067
:10435C00E3189D5C200000F066FB280070BD012571
:10436C006D42F7E708B4034B9C46034BC01A08BCDC
:0C437C006047C0463D43001040010000B7
:104388009A2310B55B00C35C0400002B05D00B48D2
:10439800FFF7D0FF0400200010BD07F0E7F8230066
:1043A800FC335A6B002A05D01B6B2834E45C07F0F9
:1043B800F3F8F0E701246442F9E7C0462C1700201F
:1043C80070B5040000F02AFB2000FFF747FF932395
:1043D8009B00E318DA68002A10D0A8219A684900DF
:1043E800A218555C9A680132D2B29A60DA68013A2A
:1043F800DA60200000F019FB280070BD01256D422D
:10440800F7E708B4024B9C46024BC01A08BC604749
:08441800C9430010400100003F
:104420009A2310B55B00C35C0400002B05D00E4836
:10443000FFF7CAFF0400200010BD07F09BF823001F
:10444000FC335A6B002A0CD01A6B2834A45C1A6B0C
:104450000132D2B21A635A6B013A5A6307F0A0F8DC
:0C446000E9E701246442F9E72C17002072
:10446C00802210B50400520000210EF015FE23002E
:0E447C000022FC335A6020009A60DA6010BD06
:10448A0010B542680368086854100019D20701D5AC
:08449A000268D358984710BDD9
:0C44A20010B501000430FFF7EFFF10BD63
:1044B00010B5024BC3601CC91CC010BDD48B0110C9
:1044C00010B586B00400684603910092436004ABC7
:1044D00006C806C3200003A9FFF7EAFF200006B0C4
:0244E00010BD0D
:0C44E20013B50400FFF7EBFF200016BD2F
:1044F0009A2370B55B00C35C86B004000D00002BEE
:1045000036D18669002E04D1042007F0D3FCA061C7
:104510000660A369186800282CD1783007F0CAFC1F
:1045200006002223E25E2023E15E2B0004F076FCED
:10453000A3691E602423E25E531C06D0A0692621D5
:10454000635E0068032104F077FCA3691D68002DF9
:104550000ED00026094A3300210002A8FFF7C1FF50
:104560002800320002A904F0D5F902A8FFF751FC97
:1045700006B070BD290004F021F9DBE7BB40001054
:0845800010B5FFF78EFF10BD1E
:0845880010B5FFF7F9FF10BDAB
:10459000F7B51A4B1A4DFA260024083300932B6006
:1045A0002023B600AE606C6016486B61AC61EC61B4
:1045B000FFF75CFF9A22012752002000AF5401F060
:1045C00085FC0190380001F081FC20230E4D0099FC
:1045D0006B616B469B88AE602B84012368845B42D1
:1045E0006C600A482960AC61EC61AB84EB84FFF736
:1045F0003DFF9A225200AC54F7BDC046E08B01103B
:104600001C1B0020441B0020E41900200C1A002071
:0446100000207047CF
:024614007047ED
:024616007047EB
:024618007047E9
:10461C0010B5054BC458002C05D023682000DB6A6C
:0C462C009847A468F7E710BD8C0500005B
:1046380070B50D00054BC458002C06D02368200027
:10464800DB6829009847A468F6E770BD8C05000070
:0846580000487047B08C01100E
:1046600010B50400044B036005F030FF200006F095
:0C46700063F8200010BDC046308C011023
:10467C0010B50400FFF7EEFFB2212000C90007F0CF
:06468C0047FC200010BDF8
:10469400F0B50F4B0500C458002385B0019102AA60
:1046A400D61C002C12D0236801991F69320003AB79
:1046B4002000B84731780300042905D0039A280064
:1046C40005F066F905B0F0BDA468E8E73178F5E7D0
:0446D4008C05000051
:1046D80070B50E0005000021002A0CD10A4BC45801
:1046E800002C0ED0236800225B6931002000984717
:1046F800002804D00121280004F014FF70BDA4682C
:0C470800EEE72100F7E7C0468C0500003A
:1047140070B50E0005000021074BC458002C07D0CB
:104724002368310020009B699847A4680100F5E7DD
:0C473400280005F003F870BD8C050000A3
:10474000F8B505000E001700084BC458002C07D020
:1047500023682000DB693A0031009847A468F5E738
:104760002800012105F058F8F8BDC0468C0500006E
:10477000F0B5002187B0040005F0C6FA6B460022B0
:10478000DA80238901A9A588E28889260B731B0A90
:104790004B730F4BEF27CB81042376000E80113E25
:1047A000FF3ECE704E710D728A72FF330A34013EA5
:1047B0002D0A120AC871CA720F718E714D720B8266
:1047C000122220000EF0DCFB200007B0F0BDC04636
:0447D00001020000E2
:1047D400F8B506000C000500002730000FF054F96E
:1047E400AB1B984205D92B786770237001350234CE
:0847F400F3E74000C0B2F8BD7C
:1047FC0070B504000C4BC558002D07D02B68280051
:10480C005B6A9847002802D1AD68F5E72800A92516
:10481C00064BED006353064BE118FFF7D5FF635DC4
:10482C00C0186055601970BD8C05000002030000B3
:04483C004A05000029
:1048400070B5A125064BED004353064B0400C1187B
:104850000548FFF7BFFF635DC0186055601970BD64
:0C486000020300000A050000148C011087
:10486C0070B59925064BED004353064B0400C01858
:10487C00FFF7A8FB635DC0186055601970BDC0469A
:08488C0002030000CA04000051
:104894000023F0B587B003A98B71B123DB00C35C9F
:1048A40005000B7101234B71BF33CB713A330B728B
:1048B400CE2309249B00154AC71803923800092205
:1048C4000EF05CFB124BEE58002E17D0336800211B
:1048D4009B6830009847C37882781B021343093BD6
:1048E4000193CE2301009B00E01828180931019A96
:1048F4000EF044FB019BB668E418E5E73800054B6D
:10490400EC54054B2412EC5407B0F0BD0902FFFF30
:0C4914008C0500003A0300003B0300008B
:1049200073B504000D0016000BF03CFB80235B0008
:10493000010000932A003300200005F0A9FE024B7D
:0C4940002000236076BDC046308C0110C2
:10494C0010B50E4A04008358002B12D18150B123AC
:10495C00DB00E25C48790A71E25C1218E2540B68E5
:10496C0008009B6A9847238918182081012010BDE4
:10497C0013009A68002AFBD19960E8E78C050000C7
:10498C001FB5040005F0B2F90100684604F01AFBEB
:10499C004021684604F090FB074BE458002C06D0ED
:1049AC00236820001B6A69469847A468F6E76846A6
:0C49BC0004F00FFB1FBDC0468C0500007E
:1049C80010B50400FFF7DEFF200005F033F910BD35
:1049D80070B50D4D2B78BFF35B8F0C4CDB0711D4F2
:1049E800280007F055F800280CD0C02208492000FC
:1049F800FFF792FF280007F06DF8064A06492000E5
:104A080007F032F8200070BD581C00201C20002040
:0C4A18008A2E00005803002061460010A8
:0E4A240010B5FFF7D7FF03685B6F984710BD12
:0E4A320010B5FFF7D0FF03689B6F984710BDCB
:0E4A400010B5FFF7C9FF0368DB6F984710BD84
:104A4E0010B50C00FFF7C1FF210005F072F910BD83
:104A5E0070B515001E000C00FFF7B7FF33002A00DB
:084A6E00210005F0A2FA70BD61
:104A760010B50C00FFF7ADFF210005F0FAFA10BDE6
:104A860070B515001E000C00FFF7A3FF33002A00C7
:084A9600210005F030FB70BDAA
:104A9E0010B50C00FFF799FF210005F090FB10BD3B
:084AAE0010B504F014FC10BD6A
:084AB60010B504F026FC10BD50
:084ABE0010B504F0FAFB10BD75
:024AC600704737
:024AC800704735
:024ACA00704733
:084ACC00436A78331878704743
:064AD400FC30806A70470F
:044ADA000120704700
:084AE00000487047088E011028
:104AE800F0B505009BB007AC4B220F002000002159
:104AF8000EF0D4FA2B00FC339B6A05215A1E934111
:104B080000202E795B421940731CDBB20193AB7B0A
:104B180002932B7B03936B7B0493874200D0A5E021
:104B28006176534906A86183102161770B39E177D3
:104B38002421471D0922F9772527627406A8053A1A
:104B4800C019A274033A027006A8C71D0320494B76
:104B5800F8772380BF3BFF3BA370812308AFFA7728
:104B680004275B00A380823BE37162754E3B22768B
:104B7800A27706A80832121823722A3BD7776372E5
:104B88000A220333A3723C4B06A8A38102231218FE
:104B9800D1770591073706A97F18FB7706270521E6
:104BA80009A8C77711A801702D2006A9401824214B
:104BB800E672A373E674A375E37501702E2006A947
:104BC800401807702F204018694606700E7912A801
:104BD80006703126072006A9761830703226761816
:104BE80005213170332606A9761869460F7A06A979
:104BF8003770224E102726863726761837700927F1
:104C080014AE377039260427761837703A26761886
:104C180069460F7906A93770194E1D352687412632
:104C2800761830703B30401805210170432106A8E2
:104C3800091868464426007B0870124906A880199E
:104C4800018011492800D1874A2206A952186946CD
:104C5800097C11704B2206A952181370402219AB17
:104C68001A7021000B320EF087F928001BB0F0BD36
:104C780005240000090200000202000003400000B1
:0C4C8800020A00000240000007050000C6
:104C940010B504000A4B08330360FFF79BFE05F0D0
:104CA40013FC2000D03004F0A4FA20007C3004F07F
:104CB400A0FA2000703004F09CFA200010BDC04619
:044CC400C08D01108E
:104CC80010B50400FFF7E2FF94212000490007F027
:064CD80021F9200010BDCF
:084CDE0010B5FFF7AEFE10BD9A
:104CE80010B50400024B036004F032F9200010BD37
:044CF800F88C011023
:104CFC0010B50400FFF7F2FF2000282107F008F997
:044D0C00200010BDB6
:104D100010B50400024B036004F01EF9200010BD22
:044D2000C88C01102A
:104D240010B50400FFF7F2FF2000342107F0F4F877
:044D3400200010BD8E
:104D380010B50400024B036004F00AF9200010BD0E
:044D4800E08C0110EA
:104D4C0010B50400FFF7F2FF2000382107F0E0F85F
:044D5C00200010BD66
:104D600070B50D000400072217490F300EF008F946
:104D700040220221280004F097F9402220730221EA
:104D8000280004F098F9402260730321280004F001
:104D90008BF9A073280004F023F9002804D1AF2276
:104DA0000A490B4806F020FB22002100002378323C
:104DB00085311165536513701373D93450321374F0
:104DC0005465936570BDC046148D0110A28D01100D
:044DD000AD8D011094
:104DD400F0B504000E0087B01500FFF72FFEF2882F
:104DE40023799A4236D1002D34D173780593012B5F
:104DF4002DD1F378202B26D13789072F23D12300F7
:104E04000F33039307333A001900039804930EF009
:104E14008FF8059D002816D03A00049903980EF0E7
:104E2400ADF8217CE07B09020918607CE77C000472
:104E34000918A07C0097000609182068237D476B99
:104E4400627D2000B847F378212B00D1012528008A
:084E540007B0F0BD0025FAE7EC
:104E5C0070B50400FFF7EEFDFFF7B8FD217B05F000
:104E6C00AFF923002200C833853225001A602000D8
:104E7C0000234732843513607C302B7004F06DF9BD
:104E8C002B78002B03D123682000DB6B984770BD77
:104E9C0070B504002500FC35FFF7CCFD6E6A002EC2
:104EAC0005D0DE220E49FF320E4806F097FA230099
:104EBC00D9332B62FFF78AFD617B05F0D7F8686266
:104ECC0025002000D8352E70D03004F046F92B7810
:104EDC00002B03D1236820009B6B984770BDC04604
:084EEC00A28D01101B8D0110C5
:064EF4000023C3607047BB
:104EFC00022370B543710023040083600C4B150032
:104F0C0008330360703004F01BF920007C3004F08F
:104F1C0017F92000D03004F013F92300FC339D6204
:104F2C00FFF754FD2100FFF70BFD200070BDC046BC
:044F3C00C08D011013
:104F400070B504000D00FFF77BFD230078331D7062
:104F5000002D42D1260084363378002B05D0FFF790
:104F60003BFD217B04F0ECFE357023002200250080
:104F70000026C83385327C3528001A605E6004F054
:104F8000F2F8280004F0E8F8B04205D1A222154951
:104F90001548520006F028FA2500D8352B78002B4A
:104FA00005D0FFF719FD217B04F0CAFE2E70230007
:104FB0002200FC33D93225001A620022D0352800A5
:104FC0005A6204F0D0F8280004F0C6F8002804D192
:104FD000A722044952000548DCE72000703004F0A5
:104FE000C2F870BDA28D0110298D01103A8D0110FB
:104FF00010B50400FFF724FD00212000FFF7A0FFFB
:0250000010BDE1
:1050020070B50D000400FFF71AFD042D03D0002136
:085012002000FFF794FF70BDC0
:10501A00F8B5040016000D001F00FFF70CFD04236D
:10502A003370EA88237900209A4210D16A78012ADB
:10503A000DD1EB78212B06D0222B09D0202B19D1A8
:10504A003070163401E032700F3407203C60F8BD2E
:10505A00A988114000D011002000FFF76CFF01223F
:10506A00AB8800201340E366AB8892181340A3660E
:0A507A003270ECE703233370E9E71E
:1050840010B504008AB0FFF7CBFC684603F050FF6C
:1050940020000A4B694670300093099404F078F8B4
:1050A4002000FFF7C4FC064B00211A68684603F091
:1050B40003FF6846FFF716FE0AB010BDF88C011016
:0450C400E88A011065
:1050C80070B504000E008EB01500FFF7A7FC01A80C
:1050D80003F02CFF20000B9600260D4B01A90C9520
:1050E8007C300DAD01930A942E7004F04FF8200027
:1050F800FFF79BFC074B31001A6801A803F0DAFEA2
:105108002C7801A8FFF700FE20000EB070BDC04645
:08511800C88C0110E88A0110A7
:1051200070B5040025008435FFF78AFC2B78002B2E
:1051300010D12600CC363368002B0BD0FFF74CFC87
:105140002200217B8532336804F0D8FF002801D08B
:0651500001232B7070BD6D
:10515600F0B585B01F000AAB1B78040003930291DB
:105166000192FFF75CFC00233B60230078331B7839
:10517600002B21D0230084331B78002B1CD1260062
:105186004025CC363368ED1A019B9D4200D91D009F
:10519600019B002B06D02300C83318682A00029909
:1051A6000DF0EBFE33685B193360039B3D60002B0B
:1051B60002D02000FFF7B1FF2000FFF737FC05B053
:0251C600F0BD3A
:1051C800F0B50400406A85B0030078331D780126E5
:1051D800002D05D1303425703500280005B0F0BD0C
:1051E8000027009603ABE26AA16A0397FFF7AFFFB7
:1051F800039AE36AA16A9B1A8A18E362A262BB4215
:1052080002D130342670E8E7606AFFF785FF3D0079
:02521800E3E7CA
:10521C00F0B51C0093B0019205000F00FFF7FCFBEA
:10522C0063426341DBB20093002C00D103AC002637
:10523C0004A8266003F078FE6A46109428003D24EA
:10524C000F4B12780493019B04A90F9311AB1A70A6
:10525C0002ABE418D03026700D950E9703F094FF36
:10526C002800FFF7E0FB074B31001A6804A803F095
:10527C001FFE247804A8FFF759FD200013B0F0BDE1
:08528C00E08C0110E88A01101A
:10529400030070B5FC335B6A0400002B0ED10500DB
:1052A400D8352B78002B09D1FFF794FB220040233B
:0E52B400D932617B04F07EFE01232B7070BDA9
:1052C200F8B506001F0000233B60330078331B78DB
:1052D2000800002B19D03300D8331B78002B14D1CF
:1052E2003400FC34656A954200D915002A00216A0F
:1052F2000DF045FE3D60236A5B192362636A5D1B04
:0C530200656202D13000FFF7C4FFF8BD67
:10530E0037B50400406A030078331D78002D04D1B0
:10531E0035342570013528003EBD0023E26A019325
:10532E00A16A01ABFFF7C6FF019BA26AD218A26267
:10533E00226B1168CB181360E36A01995B1A210086
:10534E00E36234310978002902D11268002A01D1B2
:10535E00002B03D1012335342370DCE7606AFFF79D
:06536E0092FF0025D7E7C5
:0E53740010B504000021FFF7BBFD200010BDA6
:0C53820010B50400FFF7F5FF200010BD7F
:10538E0010B542680368086854100019D20701D599
:08539E000268D358984710BDC6
:0C53A60010B501000430FFF7EFFF10BD50
:1053B40010B5024BC3601CC91CC010BD088D011080
:1053C40010B586B00400684603910092436004ABB4
:1053D40006C806C3200003A9FFF7EAFF200006B0B1
:0253E40010BDFA
:0C53E60013B50400FFF7EBFF200016BD1C
:1053F400F0B58BB00400FFF721FBFFF7EBFA0600D2
:1054040006ADA77B00212800FFF7B9FF390003236D
:1054140040220095300005F0C5F82800FEF7F7FC9F
:10542400FFF7D8FA0700267B21002800174A00233B
:10543400FFF7D7FF3100022340220095380005F022
:10544400B1F82800FEF7E3FCFFF7C4FA0600677B17
:10545400210028000E4A0023FFF7C3FF390002236E
:1054640040220095300005F09DF82800FEF7CFFC9F
:10547400FFF7B0FA2200FC32617B4023126A04F089
:1054840099FD0120D83420700BB0F0BD5D4E0010A2
:045494009D4E001019
:0854980010B5FFF784FF10BD01
:0854A00010B5FFF7F9FF10BD84
:1054A80010B503689B6C984710BD08B4024B9C4626
:1054B800024BC01A08BC6047A95400104001000004
:0454C8007047704772
:0454CC00704770476E
:1054D00010B504000120783400F01EFD207810BDC6
:1054E00008B4034B9C46034BC01A08BC6047C04637
:0854F000D1540010400100003E
:1054F800012270B501235242FF210B4806F0A6FE97
:1055080000F0F6FC0500094C78342378002B03D012
:10551800012000F0FDFCF8E700F0EAFC401BC7287A
:10552800F6D9FEF761FD70BDC41D00202C170020C0
:1055380007B50122019101A9FFF7C2FD002801D09A
:0A55480001980EBD01204042FBE770
:1055540008B4034B9C46034BC01A08BC6047C046C2
:08556400395500102801000078
:10556C0013B56B46DC1D0023012221002370FFF7CD
:10557C004FFE002801D0207816BD01204042FBE7E9
:10558C0008B4034B9C46034BC01A08BC6047C0468A
:08559C006D550010280100000C
:1055A400F7B5040001930E001500FFF747FA9C239A
:1055B4009B00E758002F04D0089B019A2900300073
:1055C400B84798239B00E650019A0433E55004330E
:0A55D400E250089A0433E250F7BDDC
:1055E000962310B5DB00984203D10121014806F053
:0855F00013FE10BDC41D0020D4
:0455F8000068704790
:0455FC000C307047B8
:0C56000010B5FFF7FBFF0023036010BD96
:10560C00CB6810B5C360002B01D05B68984710BD08
:10561C0070B50500FFF700FA2B000024D8331B7877
:10562C00A34205D12B00FC335C6A402C00D94024EA
:0A563C002800FFF7F8F9200070BD08
:0656460078300078704787
:10564C00F0B585B003930AAB1E880BAB04001F8822
:10565C000D0002920AF0A0FC039B0100029A019734
:10566C0000962000FFF744FC200029300021FF3079
:10567C0005F0EAFC2300FA2200264133FF339200A6
:10568C005E609A60184B194A23602300FC33DA627F
:10569C00174A20001A63174A51305A64802231008D
:1056AC00FF3052000DF0F8FC93239B00E3185E6072
:1056BC009E60DE609D239B00E6184033E7183000A7
:1056CC001036FFF751FEBE42F9D1AD2200239200F5
:1056DC00A350443AA3509D4202D02000FFF7CCFCCB
:1056EC00200005B0F0BDC046D08E0110488F0110CF
:0856FC00A88F0110B88F011006
:10570400104B70B5036003000F4AFC33DA620F4A92
:1057140004001A630E4A5A649D239B00C618403342
:10572400C518AE4204D0103D2800FEF770FBF8E720
:1057340020002930FF3005F0B7FC2000FFF7A8FA5D
:10574400200070BDD08E0110488F0110A88F011069
:04575400B88F0110F9
:1057580008B4034B9C46034BC01A08BC6047C046BC
:085768000557001028010000A4
:1057700008B4034B9C46034BC01A08BC6047C046A4
:08578000055700102C01000088
:1057880010B50400FFF7BAFFAE212000890006F02B
:06579800C1FB200010BD62
:1057A00008B4034B9C46034BC01A08BC6047C04674
:0857B000895700102C010000D4
:1057B80008B4034B9C46034BC01A08BC6047C0465C
:0857C8008957001028010000C0
:1057D00070B504000D00884205D0FEF789FA290053
:0A57E0002000FFF713FF200070BD4A
:1057EA0010B5FFF706FF0068431E9841C0B210BD0E
:1057FC0010B50400FFF7F3FF002804D1054A064951
:10580C00064805F0EBFDE068FFF7F0FE0300200012
:10581C00984710BD02020000B18E0110BC8E011021
:10582C00F8B5AD2706000025FFF704F9BF00F359C2
:10583C00AB420ED99D2292002B01B418E418200023
:10584C00FFF7CDFF002804D02000FFF7D1FF013572
:04585C00EDE7F8BDBF
:1058600010B5044B0822C3600B68002108C00DF07E
:0858700019FC10BD2C8E011083
:1058780013B504000191002903D1FFF7BDFE2000F4
:0A58880016BD01A9FFF7E8FFF9E7DC
:1058920010B542680368086854100019D20701D590
:0858A2000268D358984710BDBD
:0C58AA0010B501000430FFF7EFFF10BD47
:1058B80010B5024BC3601CC91CC010BD208E01105E
:1058C80010B586B00400684603910092436004ABAB
:1058D80006C806C3200003A9FFF7EAFF200006B0A8
:0258E80010BDF1
:0C58EA0013B50400FFF7EBFF200016BD13
:1058F80030B589B00400FFF791F89C23274A9B0034
:10590800E2502000FFF791F80023254A210004A85F
:10591800FFF7E7FF2000FFF781F8AD239B00E05871
:10592800032808D8421CE2500001403BC018201848
:1059380004A9FFF749FF2000FFF777F804A8FEF74E
:1059480064FABC2006F0B2FA0500164B08C0FFF74F
