:100000001AC04AC049C048C047C046C045C044C0E5
:1000100043C070C341C040C03FC03EC03DC03CC0B3
:100020003BC03AC039C095C337C036C035C034C0B4
:1000300033C032C06F0711241FBECFEFCDBFDFE347
:10004000DEBF8091400080934000811105C098ED93
:1000500021E094BF209341008CBB1FE3A0E0BFE3ED
:10006000E6E5FFE002C005900D92A430B107D9F794
:100070002FE3A4E0BFE301C01D92A037B207E1F770
:1000800010E0CBE1D0E003C02197FE0141D7CA3197
:10009000D107D1F704D442C7B3CF8091463F81FF47
:1000A0000FC0E091433FF091443F1382E091433F02
:1000B000F091443F16828091463F8D7F8093463F6A
:1000C0008091463F82FF10C0E091433FF091443F52
:1000D00014861186E091433FF091443F168680914B
:1000E000463F8B7F8093463F0895CF93C82FE09182
:1000F000433FF091443F838180FD03C080E1CF9175
:10010000089570914C3F90914D3F20E23EE440E0D5
:10011000A0E5BFE37E7F5581652F637079F32150A1
:10012000310999F485E0623021F084E0613009F40E
:1001300081E120914D3F291B20934D3FC11102C009
:100140008823E9F293E09483DACF53FD1EC0633035
:1001500011F3411105C0778320E23EE441E0DBCF9B
:1001600056FFD9CF54FF08C082E041FFE2CF83E0C1
:100170009111DFCF80E0DDCF9923E1F38D9180876E
:100180009150426020E23EE4C6CF82E1B8CF809138
:10019000463F81FF16C0E091433FF091443F868186
:1001A000893511F480E008959381138289E586836F
:1001B00080818D7F8083938390FFF4CF81E085835E
:1001C000F1CF81E008952FB7F89460912C3F7091A2
:1001D0002D3F80912E3F90912F3F2FBF08958F92FA
:1001E0009F92AF92BF92CF92DF92EF92FF926B01FC
:1001F0007C01E9DF4B015C01E6DF681979098A09B6
:100200009B096C157D058E059F05B0F3FF90EF905F
:10021000DF90CF90BF90AF909F908F900895809186
:10022000010284FF04C086E080930604089583E001
:10023000809326040895DC011896ED91FC91848149
:100240008860848308959C012B5E3F4FDC015396A8
:10025000EC91539752968C91E81730F4E20FF32FFC
:10026000F11D808190E008958FEF9FEF0895FC01CC
:10027000DC01559693898289981740F4A90FB11D26
:100280002C919F5F938B822F90E008958FEF9FEFCB
:100290000895FC0182899389891B990B0895FC01BB
:1002A000A289A03258F4A80FB92FB11D55966C93AE
:1002B00082898F5F828B81E090E0089590E080E0FA
:1002C0000895BF92CF92DF92EF92FF920F931F9308
:1002D000CF93DF937C016A01B62EEB010C2F0B1933
:1002E00010E00C151D0528F46991C701D8DF892B92
:1002F000A9F7C801DF91CF911F910F91FF90EF9067
:10030000DF90CF90BF90089590E080E008950F9324
:100310001F93CF93DF938C01D0E01816190614F5C4
:1003200090914D3F80914E3FD0E0981721F08BE3A4
:100330009FE39DDFD82F80914D3F90914E3F01303C
:10034000110581F09817B9F08BE39FE390DFC82F78
:1003500090914D3F80914E3F981731F08BE39FE392
:1003600086DFF6CFC0E0F4CFD53C29F4CA3519F4C6
:1003700081E080931B3FDF91CF911F910F910895F2
:1003800090E2811116C0909306049091000495FDAF
:100390000AC09FB7F89481110FC080911504877F20
:1003A000809315049FBF8091010A8F7B8093010A7F
:1003B000089590930504E9CF809115048860F0CFEB
:1003C00090E0FC01E65BF04720812F3FB9F0FC0193
:1003D000E25CF047E08130E2E39FF0011124FC5F32
:1003E00060FF0DC021838E5C9047DC018C91E80F8B
:1003F000F11D808961FF05C08860808B089522838C
:10040000F2CF877FFACFCF939091463F91FF07C0FD
:1004100090E190934C3F10924D3F10924E3F682FC9
:100420008BE39FE33CDF80E060DE882321F090E0F7
:1004300080E0CF91089590E190934C3F92E09093AB
:100440004D3F10924E3FE091433FF091443F20E2F8
:100450003EE4A0E5BFE362E071E14581542F5370B3
:1004600091F02150310979F043FD12C05330A9F3C6
:10047000811105C0778320E23EE481E0EECF46FFA4
:1004800017C083E0848380914D3F891B80934D3F4B
:1004900080914D3F823059F68BE39FE3E8DEC82F11
:1004A0008BE39FE3E4DE20E0382FC9018C2BC1CF22
:1004B00047FFD3CF20852D93913029F0648320E22C
:1004C0003EE491E0CACF87E0848390E0DCCF0F93D5
:1004D0001F93CF938B01C42F9091463F91FF07C08C
:1004E00090E190934C3F10924D3F10924E3F682FF9
:1004F0008BE39FE3D4DE4C2F50E0B8018BE39FE306
:10050000E0DE81E0F2DD982FEFE0F7E23197F1F7DE
:1005100000C0000081E0911180E0CF911F910F9108
:100520000895CF93DF93CDB7DEB72697CDBFDEBF5B
:10053000898390E99A836B83272F30E07C8396E050
:100540009E83620F732F711D60577F4F860F972F09
:10055000911D80958D8344E0BE016F5F7F4F8EE3D8
:10056000B6DF42E0BE016B5F7F4F80E6B0DF2696CC
:10057000CDBFDEBFDF91CF910895CF93DF93CDB78D
:10058000DEB72597CDBFDEBF8983292F30E09A8360
:100590006B8395E09D83820F932F911D680F792FB8
:1005A000711D60956C8343E0BE016F5F7F4F8EE3EA
:1005B0008EDF42E0BE016C5F7F4F80E688DF2596CC
:1005C000CDBFDEBFDF91CF910895CF93DF9300D0F1
:1005D000CDB7DEB789831A8242E0BE016F5F7F4FDD
:1005E0008EE375DF0F900F90DF91CF91089580E932
:1005F00090E0EBDF8FE493EC0197F1F700C000008F
:1006000062E08BE190E9B9DF6CE18EE190E9B5DF62
:1006100060EC84E290E9B1DF60E085E290E9ADDF73
:1006200062E080E290E9A9DF6FEF81E290E9A5DF67
:1006300060E082E290E9A1DF6EE683E290E99DDF6F
:100640006FEF7FEF8CE190E96CDF68EB7BE08EE28F
:1006500090E967DF6AE080E390E98FDF62E081E3A1
:1006600090E98BDF68E670E182E390E95ADF6AE0A7
:1006700084E390E982DF62E085E390E97EDF82E94E
:1006800090E0A3DF64E670E080E090E0A8CD05DDB7
:1006900069E170E080E090E0A2DD8091463F81FD5D
:1006A00010C082FD0EC0BBDD8091463F826080930A
:1006B000463FE091433FF091443F81E0838385834F
:1006C00066DD65DD10923A3F1092363F1092373F5B
:1006D0001092383F1092393F76DD685B7B4081098C
:1006E00091096093323F7093333F8093343F9093EE
:1006F000353F7DCF8F9382E080930B0A8FB78F9326
:10070000EF93FF93E8E2FFE39F9368948FEF0DC0B0
:10071000E89484819581805D9C4F84839583885E75
:10072000934080F0848395838FEF9081981B919301
:1007300090819F4F919390819F4F919390819F4F74
:10074000919336F39F91FF91EF918F918FBF8F918E
:1007500018951F920F920FB60F9211241F932F938B
:100760003F934F935F936F937F938F939F93AF9339
:10077000BF93CF93DF93EF93FF93C091053FD09149
:10078000063F2097B9F1A885B9851B961C911B9748
:1007900016FF53C08B8583FF09C0877F8B87EF854A
:1007A000F889309719F08A8990E0099510FF3BC0CD
:1007B0008A8981110BC08091043F811107C080910B
:1007C00050008093043F8170809350001A8A1B8AE6
:1007D000E885F9858585898B11FF20C0ED85FE852B
:1007E000309709F009958A8981111BC086E0E88558
:1007F000F9858287FF91EF91DF91CF91BF91AF9102
:100800009F918F917F916F915F914F913F912F9128
:100810001F910F900FBE0F901F9018958B858860C9
:100820008B8783E0E4CF8091043F80935000109247
:10083000043F1A8A1B8A82E0DACF17FF2EC09E017E
:100840002B5E3F4F11FF1AC08A85182321F088E0E4
:100850008A871A8AF0CF8C898F5F8C8B88E18A8790
:10086000EB898A89E817A8F7E20FF32FF11D808141
:100870001D968C938B898F5F8B8BD3CF1D968C911C
:10088000EA89E03250F4E20FF32FF11D80838A8968
:100890008F5F8A8B803229F6A9CF80E0A8CF88EDC0
:1008A00090E084BF90936100E0E0F6E083E582830E
:1008B0008DE0858380E28383C1E0C08310920202D1
:1008C000C093030A8EEF8093260A8093270A8BE059
:1008D0008093000A82E080930A0A789462E085E0BF
:1008E0006FDD60E08AE06CDD61E084E069DD61E09D
:1008F00081E066DD81E044DD8091463F81FD0FC0EF
:1009000082FD0DC08CDC8091463F82608093463F23
:10091000E091433FF091443FC383C58338DC37DC2B
:100920001092273F62E370E080E090E058DC5FDEE9
:10093000EE24EA94F12C94E0292E24E6322E77243A
:100940007A9437E8C32E31E0D32E48E0642E56E87F
:10095000552E61EE462EC091273FC13031F533DC74
:1009600020911B3F222361F010921B3F6093133FA5
:100970007093143F8093153F9093163FC093123F9E
:100980002091123F211146C20091173F1091183F4C
:100990002091193F30911A3F601B710B820B930B12
:1009A00000E41FE120E030E045C2909128048091EE
:1009B000263F92FD20C181110CC005DC6093223FCF
:1009C0007093233F8093243F9093253F81E0809351
:1009D000263FF9DB0091323F1091333F2091343FA5
:1009E0003091353F4B015C01801A910AA20AB30A8B
:1009F00095018401083B1B402105310508F468C0BE
:100A00006093323F7093333F8093343F9093353FF0
:100A10008091463F81FF07C084E880934C3F10924D
:100A20004D3F10924E3F65EC8BE39FE338DC61EA6B
:100A30008BE39FE334DC81E058DB811149C02DDB7F
:100A40008FE493EC0197F1F700C00000C0924A3F99
:100A5000D0924B3F8091463F81FD11C082FD0FC077
:100A6000DEDB8091463F84608093463F6092453F45
:100A7000E091433FF091443F54861686418681E0E1
:100A80008093273F10921B3F64EF71E080E090E07D
:100A9000A6DB99DB6093173F7093183F8093193F53
:100AA00090931A3F6093133F7093143F8093153FC8
:100AB0009093163F1092123F1092113F10921D3FDB
:100AC00010921E3F10921F3F1092203F81E058DC91
:100AD0007ADB4B015C0180910D3F90910E3FA0911C
:100AE0000F3FB091103FA5019401281B390B4A0B11
:100AF0005B0BDA01C90184369105A105B105F0F15E
:100B000080920D3F90920E3FA0920F3FB092103F07
:100B100084E179DC8C0186E176DCEC0101151105BC
:100B200009F0C4C0892B09F0C1C080913A3F8F3FC2
:100B300019F08F5F80933A3F80913A3F8530F0F013
:100B40008091093F90910A3FA0910B3FB0910C3FDB
:100B5000A5019401281B390B4A0B5B0BDA01C90173
:100B6000883E9340A105B10548F08092093F9092DC
:100B70000A3FA0920B3FB0920C3F89DD24DB4B0172
:100B80005C018091073F882361F081E0F9DB1092DE
:100B9000073F80921D3F90921E3FA0921F3FB09250
:100BA000203F80911D3F90911E3FA0911F3FB0912B
:100BB000203FB501A401481B590B6A0B7B0B8091A8
:100BC000023F8111D5C08091213F882309F4C4C020
:100BD000423351056105710508F4BDCE81E0D0DBDB
:100BE0001092213F80921D3F90921E3FA0921F3F86
:100BF000B092203FB0CE882309F44BC0E4DA0091D4
:100C0000223F1091233F2091243F3091253FDC016A
:100C1000CB01801B910BA20BB30B813D57E09507D5
:100C2000A105B105A8F080E190E0CFDC80E190E083
:100C3000CCDC80E0A5DB68EC70E080E090E0CFDA0F
:100C400081E09EDB68EC70E080E090E0C8DAF1CFF4
:100C5000893C9105A105B105E0F080911C3F8823F6
:100C6000D9F08EE090E0B1DC10921C3F8091023F01
:100C700091E089278093023F1092213FA4DA60938C
:100C80001D3F70931E3F80931F3F9093203F81E054
:100C900077DB1092263F9DCE8FE090E096DC8FE0D0
:100CA00090E093DC81E080931C3FE0CF10923A3FCC
:100CB00084E6A9DB91709093083F0C314CE0140757
:100CC00038F420E0CC315CE0D50718F021E007C013
:100CD00021E0C8018C1B9D0B0C171D0718F4CE01D9
:100CE000801B910B30911C3F311148CF222309F416
:100CF00045CF449708F442CFC017D10758F164E0BC
:100D00000C171D0708F03ACF8091363F9091373F7E
:100D1000A091383FB091393F0097A105B10571F01E
:100D2000A5019401281B390B4A0B5B0BDA01C901A1
:100D300080359644A105B10508F420CF83E890E002
:100D40001CDC8092363F9092373FA092383FB092A1
:100D5000393F14CF62E0D8CF483E5340610571055A
:100D600008F4F9CD80E00CDB81E08093213F3ACF9D
:100D70001092213F8091083F882389F185E090E01F
:100D8000B0E0A0E0481759076A077B0708F4E3CDF5
:100D900080921D3F90921E3FA0921F3FB092203F35
:100DA0008091013F2091003F022E000C330B820FF7
:100DB000932F911D84369105A4F03092013F7092DB
:100DC000003F8091013F4701881A9108C4010097B4
:100DD000A1F480E0D5DA61E081E0F2DABCCD8FE009
:100DE000CECF8530910534F42092013F81E080938D
:100DF000003FE7CF8093013FE4CF8F3F910511F48F
:100E000081E0E8CF80922D0A8091010A806480936E
:100E1000010AE1CF0091133F1091143F2091153F3B
:100E20003091163F601B710B820B930B08EE13E0A1
:100E300020E030E0061717072807390748F527DCB8
:100E40001092273F10921B3F1092123F1092173FB3
:100E50001092183F1092193F10921A3FB4D9685B54
:100E60007B40810991096093323F7093333F8093B7
:100E7000343F9093353F1092113FA5D960931D3FA9
:100E800070931E3F80931F3F9093203F81E078DA5C
:100E90009AD900911D3F10911E3F20911F3F309124
:100EA000203F4B015C01801A910AA20AB30A950106
:100EB0008401043F11402105310508F44CCD6093B5
:100EC0001D3F70931E3F80931F3F9093203F809162
:100ED000113F91E098279093113F52DA3CCDEBE31C
:100EE000FFE31282138288EE93E0A0E0B0E08483F7
:100EF0009583A683B78384E29FE880839183E09300
:100F0000053FF093063F80E198E080879187089540
:100F1000EE0FFF1F0590F491E02D0994F894FFCF98
:100F2000000000004F01610184011B0149013701EC
:100F3000230104050607030201000102030000006B
:100F400000000101010100000000102040800804A1
:060F500002010204080189
:040F5600010601008F
:00000001FF
