:1000000019C034C033C032C031C030C02FC02EC080
:100010002DC06CC12BC02AC029C028C027C026C053
:1000200025C024C023C022C021C020C01FC01EC0C4
:100030001DC01CC011241FBECFEFCDBFDFE3DEBF4C
:100040008091400080934000811105C098ED21E02F
:1000500094BF209341008CBB2FE3A0E8BFE301C015
:100060001D92A939B207E1F770D166C2C9CF2FB787
:10007000F8946091933F7091943F8091953F909157
:10008000963F2FBF08958F929F92AF92BF92CF92CB
:10009000DF92EF92FF926B017C01E9DF4B015C0183
:1000A000E6DF681979098A099B096C157D058E05BB
:1000B0009F05B0F3FF90EF90DF90CF90BF90AF908F
:1000C0009F908F90089590E8811116C09093060438
:1000D0009091000497FD0AC09FB7F89481110FC05A
:1000E00080911704877F809317049FBF8091010A36
:1000F0008E7F8093010A089590930504E9CF809143
:1001000017048860F0CF60E570E080E090E0BBDF2E
:1001100080E0D9DF60E570E080E090E0B4DF81E06E
:10012000D2CF90E19093170890911508907CE1F35D
:100130009091150894FD0CC08093180880911508C3
:1001400086FFFCCF80911508962FFB0184FF04C029
:1001500083E080931408089581918093180880911A
:10016000150886FFFCCF8091150884FDF1CF8E2FF6
:10017000891B841788F383E0809314088FE097E24B
:100180000197F1F700C000000895CF93DF93CDB73A
:10019000DEB72697CDBFDEBF898390E99A836B8354
:1001A000272F30E07C8396E09E83620F732F711DB2
:1001B00060577F4F860F972F911D80958D8344E068
:1001C000BE016F5F7F4F8EE3ACDF42E0BE016B5F2D
:1001D0007F4F80E6A6DF2696CDBFDEBFDF91CF91B1
:1001E0000895CF93DF93CDB7DEB72597CDBFDEBFA0
:1001F000898390E99A836B8395E09D8370E06057D3
:100200007F4F860F972F911D80958C8343E0BE0111
:100210006F5F7F4F8EE385DF42E0BE016C5F7F4FF3
:1002200080E67FDF2596CDBFDEBFDF91CF910895B9
:10023000CF93DF9300D0CDB7DEB789831A8242E037
:10024000BE016F5F7F4F8EE36CDF0F900F90DF91E9
:10025000CF91089558DF57DF56DF80E990E0E8DF5F
:100260008FE493EC0197F1F700C0000062E08BE1AE
:1002700090E9B7DF64E08EE190E9B3DF63E070E01E
:1002800084E290E982DF70E060E085E290E97DDF62
:1002900070E060E08CE190E978DF68EB7BE08EE273
:1002A00090E973DF68EE73E080E390E96EDF66E962
:1002B00070E081E390E969DF68E670E182E390E94C
:1002C00064DF68EE73E084E390E95FDF64E670E08A
:1002D00085E390E95ADF82E990E0AADF64E670E006
:1002E00080E090E0D0DE0FDF0EDF0DCF8F9382E055
:1002F00080930B0A8FB78F93EF93FF93EFE8FFE3A1
:100300009F9368948FEF0DC0E89484819581805D00
:100310009C4F84839583885E934080F0848395838B
:100320008FEF9081981B919390819F4F9193908133
:100330009F4F919390819F4F919336F39F91FF919F
:10034000EF918F918FBF8F91189588ED90E084BFCA
:1003500090936100E0E0F6E083E582838DE08583A1
:1003600080E28383C1E0C083C0930202C093030A8A
:100370008EEF8093260A8093270A8BE08093000AF1
:1003800082E080930A0A789480E880930104809147
:100390001704877F8093170481E095DE88E08093BF
:1003A00002048091130488608093130486E0809394
:1003B00002048091110488608093110480911204DA
:1003C0008860809312048FE580931608C093130809
:1003D000C093150862E370E080E090E054DE3ADFFD
:1003E0008091080483FD38C08EDE8091893F8111A1
:1003F0000BC03DDE6093853F7093863F8093873FBF
:100400009093883FC093893FC090853FD090863FAE
:10041000E090873FF090883F8091843F882309F4E3
:1004200041C025DE6C197D098E099F09613D774029
:100430008105910508F442C0CAE065DEC150E9F7C4
:1004400080E190E0F5DE80E190E0F2DE68EE73E0BE
:1004500080E090E018DEFACF8091843F8823F9F0A5
:100460001092843F04DEC090803FD090813FE090A6
:10047000823FF090833F6C197D098E099F09683B8C
:100480007B4081059105E0F58EE090E0D1DE109291
:100490008A3F68EE73E080E090E0F5DDDBDE1092ED
:1004A000893F0CC0E4DD6C197D098E099F09693C08
:1004B00071058105910510F0C093843FD8DDC0908F
:1004C0008B3FD0908C3FE0908D3FF0908E3F6C1929
:1004D0007D098E099F09613D77408105910508F4EA
:1004E0007FCF11DE80918A3F81110DDEC0DD6093E8
:1004F0008B3F70938C3F80938D3F90938E3F70CF56
:10050000B6DD6093803F7093813F8093823F9093EC
:10051000833F80918A3F882331F08EE090E088DE2F
:1005200010928A3FBCCF8FE090E082DE8FE090E0B7
:0C0530007FDEC0938A3FB3CFF894FFCF6A
:00000001FF
