:1000000019C034C033C032C031C030C02FC02EC080
:100010002DC086C02BC02AC029C028C027C026C03A
:1000200025C024C023C022C021C020C01FC01EC0C4
:100030001DC01CC011241FBECFEFCDBFDFE3DEBF4C
:100040008091400080934000811105C098ED21E02F
:1000500094BF209341008CBB2FE3A0E0BFE301C01D
:100060001D92A031B207E1F78AD068C1C9CFCF9302
:10007000DF93282F30E0E901CC59DC4788818F3F9E
:1000800009F43BC0A901485A5C47DA01EC91B0E29F
:10009000EB9FF0011124FC5F611132C086839081D7
:1000A0008923A1F4C901845B9C47DC019C913097B2
:1000B00081F1983070F57096E90FF11D9FB7F894B3
:1000C0008081611129C0877F80839FBF205C3C476E
:1000D000F9018081882389F0803179F48881DA01FF
:1000E0009C919130D9F4853010F0880F82959091D1
:1000F000010A809589238093010ADF91CF910895A9
:10010000643029F49481878364816823C8CF858310
:10011000C6CFF0E0E0E0D2CF8860D6CF880FE7CF3F
:100120008F9382E080930B0A8FB78F93EF93FF93A7
:10013000E6E0FFE39F9368948FEF0DC0E89484811D
:100140009581805D9C4F84839583885E934080F089
:10015000848395838FEF9081981B919390819F4F1B
:10016000919390819F4F919390819F4F919336F3FC
:100170009F91FF91EF918F918FBF8F91189588ED8F
:1001800090E084BF90936100E0E0F6E083E5828335
:100190008DE0858380E2838381E080831092020278
:1001A0008093030A8EEF8093260A8093270A8BE0C0
:1001B0008093000A82E080930A0A789405988091DF
:1001C0001504886080931504069880911604886051
:1001D0008093160480E18093010480911404877F4A
:1001E00080931404239A80913304877F809333048F
:1001F000229A80913204877F80933204219A8091E1
:100200003104877F80933104209A80913004877F66
:1002100080933004039A80911304877F80931304A2
:10022000079A80911704877F8093170460E08AE023
:100230001EDF8091080461E0C82FC07285FD60E078
:1002400080E015DFC1116AC061E08091043F9091A8
:10025000053F892B09F460E084E009DF61E08091CB
:10026000043F9091053F019709F460E085E0FFDECF
:1002700061E08091043F9091053F029709F460E0AE
:1002800086E0F5DE61E08091043F9091053F0397A1
:1002900009F460E087E0EBDE2FB7F89480910A3F25
:1002A00090910B3FA0910C3FB0910D3F2FBF40911B
:1002B000003F5091013F6091023F7091033F841BCA
:1002C000950BA60BB70B85369105A105B10508F472
:1002D000B0CF8091043F9091053F01968430910505
:1002E000C1F08093043F9093053F2FB7F89480911D
:1002F0000A3F90910B3FA0910C3FB0910D3F2FBF53
:100300008093003F9093013FA093023FB093033F3F
:1003100090CF1092043F1092053FE7CF1092043F18
:100320001092053F61E084E0A2DE61E085E09FDE9F
:1003300061E086E09CDE61E087E07ACFF894FFCF51
:100340001010000000101010000010000405060737
:10035000030201000102030000000000010101018D
:10036000000000001020408008040201020408017F
:00000001FF
