:100000001AC03FC03EC03DC03CC03BC03AC039C032
:1000100038C037C036C035C034C033C03AC231C032
:1000200030C02FC02EC064C22CC02BC02AC029C033
:1000300028C027C07F0411241FBECFEFCDBFDFE350
:10004000DEBF8091400080934000811105C098ED93
:1000500021E094BF209341008CBB2FE3A0E0BFE3DD
:1000600001C01D92A035B207E1F710E0CBE1D0E06E
:1000700003C02197FE015CD4CA31D107D1F7DED28B
:100080005DC4BECF0F931F93CF93DF93EC018B0121
:10009000E091233FF091243F838180FD06C080E101
:1000A000DF91CF911F910F9108959881A0E2BEE456
:1000B00030E04E7F5581752F737089F3119789F465
:1000C00085E0723021F084E0713009F481E13881FB
:1000D000391B3883211102C0882311F393E09483E4
:1000E000DFCF53FD20C0733029F3311105C04783A2
:1000F000A0E2BEE431E0DECF56FFDCCF54FF08C003
:1001000082E031FFE4CF83E09111E1CF80E0DFCFE7
:100110009923E1F3D8018D918D0180879150326050
:10012000A0E2BEE4C7CF82E1BBCF2FB7F8946091C5
:10013000153F7091163F8091173F9091183F2FBF48
:1001400008958F929F92AF92BF92CF92DF92EF92DB
:10015000FF926B017C01E9DF4B015C01E6DF68196E
:1001600079098A099B096C157D058E059F05B0F3F9
:10017000FF90EF90DF90CF90BF90AF909F908F90C7
:1001800008958091263F81FF16C0E091233FF091B2
:10019000243F8681893511F480E00895938113828C
:1001A00089E5868380818D7F8083938390FFF4CF60
:1001B00081E08583F1CF81E00895DC011896ED910F
:1001C000FC9184818860848308959C012B5E3F4F5D
:1001D000DC015396EC91539752968C91E81730F4CA
:1001E000E20FF32FF11D808190E008958FEF9FEFD4
:1001F0000895FC01DC01559693898289981740F493
:10020000A90FB11D2C919F5F938B822F90E00895D1
:100210008FEF9FEF0895FC0182899389891B990BC9
:100220000895FC01A289A03258F4A80FB92FB11D7E
:1002300055966C9382898F5F828B81E090E0089560
:1002400090E080E00895BF92CF92DF92EF92FF920C
:100250000F931F93CF93DF937C016A01B62EEB01BE
:100260000C2F0B1910E00C151D0528F46991C7011E
:10027000D8DF892BA9F7C801DF91CF911F910F918A
:10028000FF90EF90DF90CF90BF90089590E080E0D6
:100290000895CF939091263F91FF07C090E19093EE
:1002A0002C3F10922D3F10922E3F682F8BE19FE341
:1002B000B8DF20E040912C3F60E37FE38DE29FE3D5
:1002C000E1DE882321F090E080E0CF91089590E175
:1002D00090932C3F92E090932D3F10922E3FE0910F
:1002E000233FF091243F20E23EE4A0E3BFE362E03D
:1002F00071E14581542F537091F02150310979F00B
:1003000043FD12C05330A9F3811105C0778320E269
:100310003EE481E0EECF46FF17C083E08483809106
:100320002D3F891B80932D3F80912D3F823059F6C0
:100330008BE19FE35EDFC82F8BE19FE35ADF20E074
:10034000382FC9018C2BC1CF47FFD3CF20852D93E8
:10035000913029F0648320E23EE491E0CACF87E047
:10036000848390E0DCCF0F931F93CF938B01C42F36
:100370009091263F91FF07C090E190932C3F1092FF
:100380002D3F10922E3F682F8BE19FE34ADF4C2FC9
:1003900050E0B8018BE19FE356DF21E040912C3F14
:1003A00060E37FE38DE29FE36DDE982FEFE0F7E2FD
:1003B0003197F1F700C0000081E0911180E0CF910A
:1003C0001F910F910895CF93DF93CDB7DEB7269796
:1003D000CDBFDEBF898390E99A836B83272F30E0FE
:1003E0007C8396E09E83620F732F711D60577F4F51
:1003F000860F972F911D80958D8344E0BE016F5F1E
:100400007F4F8EE3B0DF42E0BE016B5F7F4F80E63F
:10041000AADF2696CDBFDEBFDF91CF910895CF939F
:10042000DF93CDB7DEB72597CDBFDEBF8983292FF8
:1004300030E09A836B8395E09D83820F932F911D0B
:10044000680F792F711D60956C8343E0BE016F5F6B
:100450007F4F8EE388DF42E0BE016C5F7F4F80E616
:1004600082DF2596CDBFDEBFDF91CF910895CF9378
:10047000DF9300D0CDB7DEB789831A8242E0BE0198
:100480006F5F7F4F8EE36FDF0F900F90DF91CF9103
:1004900008958F9381E080938D0A8FB78F93EF93A8
:1004A000FF93E1E1FFE39F9368948FEF0DC0E89421
:1004B00084819581805D9C4F84839583885E934081
:1004C00080F0848395838FEF9081981B9193908126
:1004D0009F4F919390819F4F919390819F4F9193C4
:1004E00036F39F91FF91EF918F918FBF8F91189568
:1004F0001F920F920FB60F9211241F932F933F93C9
:100500004F935F936F937F938F939F93AF93BF931B
:10051000CF93DF93EF93FF93C091013FD091023FC0
:100520002097B9F1A885B9851B961C911B9716FFDA
:1005300053C08B8583FF09C0877F8B87EF85F88940
:10054000309719F08A8990E0099510FF3BC08A899D
:1005500081110BC08091003F811107C08091500034
:100560008093003F8170809350001A8A1B8AE8852F
:10057000F9858585898B11FF20C0ED85FE85309733
:1005800009F009958A8981111BC086E0E885F98503
:100590008287FF91EF91DF91CF91BF91AF919F91B2
:1005A0008F917F916F915F914F913F912F911F910B
:1005B0000F900FBE0F901F9018958B8588608B87CA
:1005C00083E0E4CF8091003F809350001092003F81
:1005D0001A8A1B8A82E0DACF17FF2EC09E012B5E9B
:1005E0003F4F11FF1AC08A85182321F088E08A87BF
:1005F0001A8AF0CF8C898F5F8C8B88E18A87EB8990
:100600008A89E817A8F7E20FF32FF11D80811D9664
:100610008C938B898F5F8B8BD3CF1D968C91EA89BE
:10062000E03250F4E20FF32FF11D80838A898F5F4F
:100630008A8B803229F6A9CF80E0A8CF88ED90E0A0
:1006400084BF90936100E0E0F6E083E582838DE073
:10065000858380E2838381E080838093020280939C
:10066000030A9EEF9093260A9093270A9BE09093AB
:10067000000AE0E8FAE02DEF31E026A737A7118263
:1006800090E89283848791E19083789498E09093A6
:100690000204909113049860909313049091263F64
:1006A00091FD0FC092FD0DC026E0209306049260DC
:1006B0009093263FE091233FF091243F83838583ED
:1006C00060DD5FDD62E370E080E090E03ADD80E9CC
:1006D00090E0CDDE8FE493EC0197F1F700C00000CD
:1006E00062E08BE190E99BDE6CE18EE190E997DEC0
:1006F00060EC84E290E993DE60E085E290E98FDED1
:1007000062E080E290E98BDE6FEF81E290E987DEC4
:1007100060E082E290E983DE6EE683E290E97FDECC
:100720006FEF7FEF8CE190E94EDE68EB7BE08EE2CD
:1007300090E949DE6AE080E390E971DE62E081E3FE
:1007400090E96DDE68E670E182E390E93CDE6AE004
:1007500084E390E964DE62E085E390E960DE82E9AB
:1007600090E085DE64E670E080E090E0EADC11E095
:10077000909108048091073F93FD3FC081110BC009
:10078000D4DC6093033F7093043F8093053F9093C4
:10079000063F1093073FC9DC6B017C0180910D3F40
:1007A00090910E3FA0910F3FB091103FA70196018D
:1007B000281B390B4A0B5B0BDA01C9018436910502
:1007C000A105B105A8F2C0920D3FD0920E3FE09274
:1007D0000F3FF092103F84E15CDDEC0186E159DDD2
:1007E000CC333FE0D30708F045C020E08C334FE026
:1007F000940708F440C021E044C0882379F195DCD7
:10080000C090033FD090043FE090053FF090063F3A
:10081000DC01CB018C199D09AE09BF09813D27E0A0
:100820009207A105B10560F080E190E020DE80E153
:1008300090E01DDE68EE73E080E090E082DCFACFAD
:10084000893C9105A105B10548F080910C3F8823B2
:1008500041F08EE090E00BDE10920C3F1092073FCB
:100860009ACF8FE090E003DE8FE090E000DE1093FF
:100870000C3FF4CF21E0AE01481B590BC817D90734
:1008800018F4AC014C1B5D0B30910C3F311170CF53
:10089000222309F46DCF4233510508F469CF8C1738
:1008A0009D0758F164E0C817D90708F061CF80911F
:1008B000083F9091093FA0910A3FB0910B3F0097EC
:1008C000A105B10571F0A7019601281B390B4A0B50
:1008D0005B0BDA01C90180359644A105B10508F426
:1008E00047CF83E890E09BDDC092083FD092093F5C
:1008F000E0920A3FF0920B3F3BCF62E0D8CFEBE1B2
:10090000FFE31282138288EE93E0A0E0B0E08483DC
:100910009583A683B78384E499E880839183E093E9
:10092000013FF093023F80E198E08087918708952E
:10093000EE0FFF1F0590F491E02D0994F894FFCF7E
:1009400000000000110123014601DD000B01F90048
:02095000E500C0
:00000001FF
